{
  "_format": "hh-sol-artifact-1",
  "contractName": "ReserveContract",
  "sourceName": "contracts/ReserveContract.sol",
  "abi": [
    {
      "inputs": [],
      "stateMutability": "nonpayable",
      "type": "constructor"
    },
    {
      "anonymous": false,
      "inputs": [
        {
          "indexed": true,
          "internalType": "address",
          "name": "previousOwner",
          "type": "address"
        },
        {
          "indexed": true,
          "internalType": "address",
          "name": "newOwner",
          "type": "address"
        }
      ],
      "name": "OwnershipTransferred",
      "type": "event"
    },
    {
      "anonymous": false,
      "inputs": [
        {
          "indexed": true,
          "internalType": "bytes32",
          "name": "role",
          "type": "bytes32"
        },
        {
          "indexed": true,
          "internalType": "bytes32",
          "name": "previousAdminRole",
          "type": "bytes32"
        },
        {
          "indexed": true,
          "internalType": "bytes32",
          "name": "newAdminRole",
          "type": "bytes32"
        }
      ],
      "name": "RoleAdminChanged",
      "type": "event"
    },
    {
      "anonymous": false,
      "inputs": [
        {
          "indexed": true,
          "internalType": "bytes32",
          "name": "role",
          "type": "bytes32"
        },
        {
          "indexed": true,
          "internalType": "address",
          "name": "account",
          "type": "address"
        },
        {
          "indexed": true,
          "internalType": "address",
          "name": "sender",
          "type": "address"
        }
      ],
      "name": "RoleGranted",
      "type": "event"
    },
    {
      "anonymous": false,
      "inputs": [
        {
          "indexed": true,
          "internalType": "bytes32",
          "name": "role",
          "type": "bytes32"
        },
        {
          "indexed": true,
          "internalType": "address",
          "name": "account",
          "type": "address"
        },
        {
          "indexed": true,
          "internalType": "address",
          "name": "sender",
          "type": "address"
        }
      ],
      "name": "RoleRevoked",
      "type": "event"
    },
    {
      "anonymous": false,
      "inputs": [
        {
          "indexed": true,
          "internalType": "uint256",
          "name": "vid",
          "type": "uint256"
        },
        {
          "indexed": false,
          "internalType": "uint256",
          "name": "amount",
          "type": "uint256"
        }
      ],
      "name": "Withdraw",
      "type": "event"
    },
    {
      "anonymous": false,
      "inputs": [
        {
          "indexed": true,
          "internalType": "uint256",
          "name": "vid",
          "type": "uint256"
        },
        {
          "indexed": false,
          "internalType": "uint256",
          "name": "amount",
          "type": "uint256"
        }
      ],
      "name": "deposit",
      "type": "event"
    },
    {
      "inputs": [],
      "name": "DEFAULT_ADMIN_ROLE",
      "outputs": [
        {
          "internalType": "bytes32",
          "name": "",
          "type": "bytes32"
        }
      ],
      "stateMutability": "view",
      "type": "function"
    },
    {
      "inputs": [],
      "name": "MANAGER_ROLE",
      "outputs": [
        {
          "internalType": "bytes32",
          "name": "",
          "type": "bytes32"
        }
      ],
      "stateMutability": "view",
      "type": "function"
    },
    {
      "inputs": [
        {
          "internalType": "uint256",
          "name": "",
          "type": "uint256"
        }
      ],
      "name": "_rsvVault",
      "outputs": [
        {
          "internalType": "contract IERC20",
          "name": "collateral",
          "type": "address"
        },
        {
          "internalType": "uint256",
          "name": "amount",
          "type": "uint256"
        }
      ],
      "stateMutability": "view",
      "type": "function"
    },
    {
      "inputs": [
        {
          "internalType": "contract IERC20",
          "name": "_collateral",
          "type": "address"
        }
      ],
      "name": "addReserveVault",
      "outputs": [],
      "stateMutability": "nonpayable",
      "type": "function"
    },
    {
      "inputs": [],
      "name": "currentReserveId",
      "outputs": [
        {
          "internalType": "uint256",
          "name": "",
          "type": "uint256"
        }
      ],
      "stateMutability": "view",
      "type": "function"
    },
    {
      "inputs": [
        {
          "internalType": "uint256",
          "name": "vid",
          "type": "uint256"
        },
        {
          "internalType": "uint256",
          "name": "amount",
          "type": "uint256"
        }
      ],
      "name": "depositCollateral",
      "outputs": [],
      "stateMutability": "nonpayable",
      "type": "function"
    },
    {
      "inputs": [
        {
          "internalType": "bytes32",
          "name": "role",
          "type": "bytes32"
        }
      ],
      "name": "getRoleAdmin",
      "outputs": [
        {
          "internalType": "bytes32",
          "name": "",
          "type": "bytes32"
        }
      ],
      "stateMutability": "view",
      "type": "function"
    },
    {
      "inputs": [
        {
          "internalType": "bytes32",
          "name": "role",
          "type": "bytes32"
        },
        {
          "internalType": "uint256",
          "name": "index",
          "type": "uint256"
        }
      ],
      "name": "getRoleMember",
      "outputs": [
        {
          "internalType": "address",
          "name": "",
          "type": "address"
        }
      ],
      "stateMutability": "view",
      "type": "function"
    },
    {
      "inputs": [
        {
          "internalType": "bytes32",
          "name": "role",
          "type": "bytes32"
        }
      ],
      "name": "getRoleMemberCount",
      "outputs": [
        {
          "internalType": "uint256",
          "name": "",
          "type": "uint256"
        }
      ],
      "stateMutability": "view",
      "type": "function"
    },
    {
      "inputs": [
        {
          "internalType": "bytes32",
          "name": "role",
          "type": "bytes32"
        },
        {
          "internalType": "address",
          "name": "account",
          "type": "address"
        }
      ],
      "name": "grantRole",
      "outputs": [],
      "stateMutability": "nonpayable",
      "type": "function"
    },
    {
      "inputs": [
        {
          "internalType": "bytes32",
          "name": "role",
          "type": "bytes32"
        },
        {
          "internalType": "address",
          "name": "account",
          "type": "address"
        }
      ],
      "name": "hasRole",
      "outputs": [
        {
          "internalType": "bool",
          "name": "",
          "type": "bool"
        }
      ],
      "stateMutability": "view",
      "type": "function"
    },
    {
      "inputs": [],
      "name": "owner",
      "outputs": [
        {
          "internalType": "address",
          "name": "",
          "type": "address"
        }
      ],
      "stateMutability": "view",
      "type": "function"
    },
    {
      "inputs": [],
      "name": "renounceOwnership",
      "outputs": [],
      "stateMutability": "nonpayable",
      "type": "function"
    },
    {
      "inputs": [
        {
          "internalType": "bytes32",
          "name": "role",
          "type": "bytes32"
        },
        {
          "internalType": "address",
          "name": "account",
          "type": "address"
        }
      ],
      "name": "renounceRole",
      "outputs": [],
      "stateMutability": "nonpayable",
      "type": "function"
    },
    {
      "inputs": [
        {
          "internalType": "bytes32",
          "name": "role",
          "type": "bytes32"
        },
        {
          "internalType": "address",
          "name": "account",
          "type": "address"
        }
      ],
      "name": "revokeRole",
      "outputs": [],
      "stateMutability": "nonpayable",
      "type": "function"
    },
    {
      "inputs": [
        {
          "internalType": "address",
          "name": "newOwner",
          "type": "address"
        }
      ],
      "name": "transferOwnership",
      "outputs": [],
      "stateMutability": "nonpayable",
      "type": "function"
    },
    {
      "inputs": [
        {
          "internalType": "uint256",
          "name": "vid",
          "type": "uint256"
        },
        {
          "internalType": "uint256",
          "name": "amount",
          "type": "uint256"
        }
      ],
      "name": "withdrawCollateral",
      "outputs": [],
      "stateMutability": "nonpayable",
      "type": "function"
    }
  ],
  "bytecode": "0x60806040523480156200001157600080fd5b506000620000246200013460201b60201c565b9050806000806101000a81548173ffffffffffffffffffffffffffffffffffffffff021916908373ffffffffffffffffffffffffffffffffffffffff1602179055508073ffffffffffffffffffffffffffffffffffffffff16600073ffffffffffffffffffffffffffffffffffffffff167f8be0079c531659141344cd1fd0a4f28419497f9722a3daafe3b4186f6b6457e060405160405180910390a35060018081905550620000ed6000801b620000e16200013460201b60201c565b6200013c60201b60201c565b6200012e7f241ecf16d79d0f8dbfb92cbc07fe17840425976cf0667f022fe9877caa831b08620001226200013460201b60201c565b6200013c60201b60201c565b620002c6565b600033905090565b6200014e82826200015260201b60201c565b5050565b6200017c8160026000858152602001908152602001600020600001620001f160201b90919060201c565b15620001ed57620001926200013460201b60201c565b73ffffffffffffffffffffffffffffffffffffffff168173ffffffffffffffffffffffffffffffffffffffff16837f2f8788117e7eff1d82e926ec794901d17c78024a50270940304540a733656f0d60405160405180910390a45b5050565b600062000221836000018373ffffffffffffffffffffffffffffffffffffffff1660001b6200022960201b60201c565b905092915050565b60006200023d8383620002a360201b60201c565b620002985782600001829080600181540180825580915050600190039060005260206000200160009091909190915055826000018054905083600101600084815260200190815260200160002081905550600190506200029d565b600090505b92915050565b600080836001016000848152602001908152602001600020541415905092915050565b61232380620002d66000396000f3fe608060405234801561001057600080fd5b506004361061010b5760003560e01c80638da5cb5b116100a2578063ca15c87311610071578063ca15c873146102a5578063d547741f146102d5578063ec87621c146102f1578063ece137321461030f578063f2fde38b1461032b5761010b565b80638da5cb5b146102095780639010d07c1461022757806391d1485414610257578063a217fddf146102875761010b565b80633b61f098116100de5780633b61f098146101a95780635306f102146101c5578063715018a6146101e3578063767a7b05146101ed5761010b565b8063248a9ca314610110578063279ba28d146101405780632f2ff15d1461017157806336568abe1461018d575b600080fd5b61012a600480360381019061012591906115df565b610347565b604051610137919061161b565b60405180910390f35b61015a6004803603810190610155919061166c565b610367565b604051610168929190611727565b60405180910390f35b61018b6004803603810190610186919061178e565b6103ab565b005b6101a760048036038101906101a2919061178e565b61041f565b005b6101c360048036038101906101be919061180c565b6104a2565b005b6101cd61058d565b6040516101da9190611839565b60405180910390f35b6101eb610593565b005b61020760048036038101906102029190611854565b6106cd565b005b610211610831565b60405161021e91906118a3565b60405180910390f35b610241600480360381019061023c91906118be565b61085a565b60405161024e91906118a3565b60405180910390f35b610271600480360381019061026c919061178e565b61088c565b60405161027e9190611919565b60405180910390f35b61028f6108be565b60405161029c919061161b565b60405180910390f35b6102bf60048036038101906102ba91906115df565b6108c5565b6040516102cc9190611839565b60405180910390f35b6102ef60048036038101906102ea919061178e565b6108ec565b005b6102f9610960565b604051610306919061161b565b60405180910390f35b61032960048036038101906103249190611854565b610984565b005b61034560048036038101906103409190611934565b610ae2565b005b600060026000838152602001908152602001600020600201549050919050565b60046020528060005260406000206000915090508060000160009054906101000a900473ffffffffffffffffffffffffffffffffffffffff16908060010154905082565b6103d260026000848152602001908152602001600020600201546103cd610c8a565b61088c565b610411576040517f08c379a0000000000000000000000000000000000000000000000000000000008152600401610408906119e4565b60405180910390fd5b61041b8282610c92565b5050565b610427610c8a565b73ffffffffffffffffffffffffffffffffffffffff168173ffffffffffffffffffffffffffffffffffffffff1614610494576040517f08c379a000000000000000000000000000000000000000000000000000000000815260040161048b90611a76565b60405180910390fd5b61049e8282610d26565b5050565b6104d37f241ecf16d79d0f8dbfb92cbc07fe17840425976cf0667f022fe9877caa831b086104ce610c8a565b61088c565b610512576040517f08c379a000000000000000000000000000000000000000000000000000000000815260040161050990611ae2565b60405180910390fd5b61051b81610dba565b8060046000600354815260200190815260200160002060000160006101000a81548173ffffffffffffffffffffffffffffffffffffffff021916908373ffffffffffffffffffffffffffffffffffffffff1602179055506003600081548092919061058590611b31565b919050555050565b60035481565b61059b610c8a565b73ffffffffffffffffffffffffffffffffffffffff166105b9610831565b73ffffffffffffffffffffffffffffffffffffffff161461060f576040517f08c379a000000000000000000000000000000000000000000000000000000000815260040161060690611bc5565b60405180910390fd5b600073ffffffffffffffffffffffffffffffffffffffff1660008054906101000a900473ffffffffffffffffffffffffffffffffffffffff1673ffffffffffffffffffffffffffffffffffffffff167f8be0079c531659141344cd1fd0a4f28419497f9722a3daafe3b4186f6b6457e060405160405180910390a360008060006101000a81548173ffffffffffffffffffffffffffffffffffffffff021916908373ffffffffffffffffffffffffffffffffffffffff160217905550565b6106fe7f241ecf16d79d0f8dbfb92cbc07fe17840425976cf0667f022fe9877caa831b086106f9610c8a565b61088c565b61073d576040517f08c379a000000000000000000000000000000000000000000000000000000000815260040161073490611ae2565b60405180910390fd5b60006004600084815260200190815260200160002060000160009054906101000a900473ffffffffffffffffffffffffffffffffffffffff16905060006004600085815260200190815260200160002060010154905082811061082b576107c533848473ffffffffffffffffffffffffffffffffffffffff16610e829092919063ffffffff16565b6107d88382610f0890919063ffffffff16565b6004600086815260200190815260200160002060010181905550837f56ca301a9219608c91e7bcee90e083c19671d2cdcc96752c7af291cee5f9c8c8846040516108229190611839565b60405180910390a25b50505050565b60008060009054906101000a900473ffffffffffffffffffffffffffffffffffffffff16905090565b60006108848260026000868152602001908152602001600020600001610f6190919063ffffffff16565b905092915050565b60006108b68260026000868152602001908152602001600020600001610f7b90919063ffffffff16565b905092915050565b6000801b81565b60006108e560026000848152602001908152602001600020600001610fab565b9050919050565b610913600260008481526020019081526020016000206002015461090e610c8a565b61088c565b610952576040517f08c379a000000000000000000000000000000000000000000000000000000000815260040161094990611c57565b60405180910390fd5b61095c8282610d26565b5050565b7f241ecf16d79d0f8dbfb92cbc07fe17840425976cf0667f022fe9877caa831b0881565b6109b57f241ecf16d79d0f8dbfb92cbc07fe17840425976cf0667f022fe9877caa831b086109b0610c8a565b61088c565b6109f4576040517f08c379a00000000000000000000000000000000000000000000000000000000081526004016109eb90611ae2565b60405180910390fd5b60006004600084815260200190815260200160002060000160009054906101000a900473ffffffffffffffffffffffffffffffffffffffff169050610a5c3330848473ffffffffffffffffffffffffffffffffffffffff16610fc0909392919063ffffffff16565b600060046000858152602001908152602001600020600101549050610a8a838261104990919063ffffffff16565b6004600086815260200190815260200160002060010181905550837fe2bbb158ea830e9efa91fa2a38c9708f9f6109a6c571d6a762b53a83776a3d6784604051610ad49190611839565b60405180910390a250505050565b610aea610c8a565b73ffffffffffffffffffffffffffffffffffffffff16610b08610831565b73ffffffffffffffffffffffffffffffffffffffff1614610b5e576040517f08c379a0000000000000000000000000000000000000000000000000000000008152600401610b5590611bc5565b60405180910390fd5b600073ffffffffffffffffffffffffffffffffffffffff168173ffffffffffffffffffffffffffffffffffffffff1603610bcd576040517f08c379a0000000000000000000000000000000000000000000000000000000008152600401610bc490611ce9565b60405180910390fd5b8073ffffffffffffffffffffffffffffffffffffffff1660008054906101000a900473ffffffffffffffffffffffffffffffffffffffff1673ffffffffffffffffffffffffffffffffffffffff167f8be0079c531659141344cd1fd0a4f28419497f9722a3daafe3b4186f6b6457e060405160405180910390a3806000806101000a81548173ffffffffffffffffffffffffffffffffffffffff021916908373ffffffffffffffffffffffffffffffffffffffff16021790555050565b600033905090565b610cba81600260008581526020019081526020016000206000016110a790919063ffffffff16565b15610d2257610cc7610c8a565b73ffffffffffffffffffffffffffffffffffffffff168173ffffffffffffffffffffffffffffffffffffffff16837f2f8788117e7eff1d82e926ec794901d17c78024a50270940304540a733656f0d60405160405180910390a45b5050565b610d4e81600260008581526020019081526020016000206000016110d790919063ffffffff16565b15610db657610d5b610c8a565b73ffffffffffffffffffffffffffffffffffffffff168173ffffffffffffffffffffffffffffffffffffffff16837ff6391f5c32d9c69d2a47ea670b442974b53935d1edc7fd64eb21e047a839171b60405160405180910390a45b5050565b60005b600354811015610e7e578173ffffffffffffffffffffffffffffffffffffffff166004600083815260200190815260200160002060000160009054906101000a900473ffffffffffffffffffffffffffffffffffffffff1673ffffffffffffffffffffffffffffffffffffffff1603610e6b576040517f08c379a0000000000000000000000000000000000000000000000000000000008152600401610e6290611d55565b60405180910390fd5b8080610e7690611b31565b915050610dbd565b5050565b610f038363a9059cbb60e01b8484604051602401610ea1929190611d75565b604051602081830303815290604052907bffffffffffffffffffffffffffffffffffffffffffffffffffffffff19166020820180517bffffffffffffffffffffffffffffffffffffffffffffffffffffffff8381831617835250505050611107565b505050565b600082821115610f4d576040517f08c379a0000000000000000000000000000000000000000000000000000000008152600401610f4490611dea565b60405180910390fd5b8183610f599190611e0a565b905092915050565b6000610f7083600001836111ce565b60001c905092915050565b6000610fa3836000018373ffffffffffffffffffffffffffffffffffffffff1660001b611242565b905092915050565b6000610fb982600001611265565b9050919050565b611043846323b872dd60e01b858585604051602401610fe193929190611e3e565b604051602081830303815290604052907bffffffffffffffffffffffffffffffffffffffffffffffffffffffff19166020820180517bffffffffffffffffffffffffffffffffffffffffffffffffffffffff8381831617835250505050611107565b50505050565b60008082846110589190611e75565b90508381101561109d576040517f08c379a000000000000000000000000000000000000000000000000000000000815260040161109490611ef5565b60405180910390fd5b8091505092915050565b60006110cf836000018373ffffffffffffffffffffffffffffffffffffffff1660001b611276565b905092915050565b60006110ff836000018373ffffffffffffffffffffffffffffffffffffffff1660001b6112e6565b905092915050565b6000611169826040518060400160405280602081526020017f5361666545524332303a206c6f772d6c6576656c2063616c6c206661696c65648152508573ffffffffffffffffffffffffffffffffffffffff166113fe9092919063ffffffff16565b90506000815111156111c957808060200190518101906111899190611f41565b6111c8576040517f08c379a00000000000000000000000000000000000000000000000000000000081526004016111bf90611fe0565b60405180910390fd5b5b505050565b600081836000018054905011611219576040517f08c379a000000000000000000000000000000000000000000000000000000000815260040161121090612072565b60405180910390fd5b82600001828154811061122f5761122e612092565b5b9060005260206000200154905092915050565b600080836001016000848152602001908152602001600020541415905092915050565b600081600001805490509050919050565b60006112828383611242565b6112db5782600001829080600181540180825580915050600190039060005260206000200160009091909190915055826000018054905083600101600084815260200190815260200160002081905550600190506112e0565b600090505b92915050565b600080836001016000848152602001908152602001600020549050600081146113f25760006001826113189190611e0a565b90506000600186600001805490506113309190611e0a565b9050600086600001828154811061134a57611349612092565b5b906000526020600020015490508087600001848154811061136e5761136d612092565b5b90600052602060002001819055506001836113899190611e75565b87600101600083815260200190815260200160002081905550866000018054806113b6576113b56120c1565b5b600190038181906000526020600020016000905590558660010160008781526020019081526020016000206000905560019450505050506113f8565b60009150505b92915050565b606061140d8484600085611416565b90509392505050565b60608247101561145b576040517f08c379a000000000000000000000000000000000000000000000000000000000815260040161145290612162565b60405180910390fd5b6114648561152a565b6114a3576040517f08c379a000000000000000000000000000000000000000000000000000000000815260040161149a906121ce565b60405180910390fd5b6000808673ffffffffffffffffffffffffffffffffffffffff1685876040516114cc919061225f565b60006040518083038185875af1925050503d8060008114611509576040519150601f19603f3d011682016040523d82523d6000602084013e61150e565b606091505b509150915061151e82828661153d565b92505050949350505050565b600080823b905060008111915050919050565b6060831561154d5782905061159d565b6000835111156115605782518084602001fd5b816040517f08c379a000000000000000000000000000000000000000000000000000000000815260040161159491906122cb565b60405180910390fd5b9392505050565b600080fd5b6000819050919050565b6115bc816115a9565b81146115c757600080fd5b50565b6000813590506115d9816115b3565b92915050565b6000602082840312156115f5576115f46115a4565b5b6000611603848285016115ca565b91505092915050565b611615816115a9565b82525050565b6000602082019050611630600083018461160c565b92915050565b6000819050919050565b61164981611636565b811461165457600080fd5b50565b60008135905061166681611640565b92915050565b600060208284031215611682576116816115a4565b5b600061169084828501611657565b91505092915050565b600073ffffffffffffffffffffffffffffffffffffffff82169050919050565b6000819050919050565b60006116de6116d96116d484611699565b6116b9565b611699565b9050919050565b60006116f0826116c3565b9050919050565b6000611702826116e5565b9050919050565b611712816116f7565b82525050565b61172181611636565b82525050565b600060408201905061173c6000830185611709565b6117496020830184611718565b9392505050565b600061175b82611699565b9050919050565b61176b81611750565b811461177657600080fd5b50565b60008135905061178881611762565b92915050565b600080604083850312156117a5576117a46115a4565b5b60006117b3858286016115ca565b92505060206117c485828601611779565b9150509250929050565b60006117d982611750565b9050919050565b6117e9816117ce565b81146117f457600080fd5b50565b600081359050611806816117e0565b92915050565b600060208284031215611822576118216115a4565b5b6000611830848285016117f7565b91505092915050565b600060208201905061184e6000830184611718565b92915050565b6000806040838503121561186b5761186a6115a4565b5b600061187985828601611657565b925050602061188a85828601611657565b9150509250929050565b61189d81611750565b82525050565b60006020820190506118b86000830184611894565b92915050565b600080604083850312156118d5576118d46115a4565b5b60006118e3858286016115ca565b92505060206118f485828601611657565b9150509250929050565b60008115159050919050565b611913816118fe565b82525050565b600060208201905061192e600083018461190a565b92915050565b60006020828403121561194a576119496115a4565b5b600061195884828501611779565b91505092915050565b600082825260208201905092915050565b7f416363657373436f6e74726f6c3a2073656e646572206d75737420626520616e60008201527f2061646d696e20746f206772616e740000000000000000000000000000000000602082015250565b60006119ce602f83611961565b91506119d982611972565b604082019050919050565b600060208201905081810360008301526119fd816119c1565b9050919050565b7f416363657373436f6e74726f6c3a2063616e206f6e6c792072656e6f756e636560008201527f20726f6c657320666f722073656c660000000000000000000000000000000000602082015250565b6000611a60602f83611961565b9150611a6b82611a04565b604082019050919050565b60006020820190508181036000830152611a8f81611a53565b9050919050565b7f4e6f7420616c6c6f776564000000000000000000000000000000000000000000600082015250565b6000611acc600b83611961565b9150611ad782611a96565b602082019050919050565b60006020820190508181036000830152611afb81611abf565b9050919050565b7f4e487b7100000000000000000000000000000000000000000000000000000000600052601160045260246000fd5b6000611b3c82611636565b91507fffffffffffffffffffffffffffffffffffffffffffffffffffffffffffffffff8203611b6e57611b6d611b02565b5b600182019050919050565b7f4f776e61626c653a2063616c6c6572206973206e6f7420746865206f776e6572600082015250565b6000611baf602083611961565b9150611bba82611b79565b602082019050919050565b60006020820190508181036000830152611bde81611ba2565b9050919050565b7f416363657373436f6e74726f6c3a2073656e646572206d75737420626520616e60008201527f2061646d696e20746f207265766f6b6500000000000000000000000000000000602082015250565b6000611c41603083611961565b9150611c4c82611be5565b604082019050919050565b60006020820190508181036000830152611c7081611c34565b9050919050565b7f4f776e61626c653a206e6577206f776e657220697320746865207a65726f206160008201527f6464726573730000000000000000000000000000000000000000000000000000602082015250565b6000611cd3602683611961565b9150611cde82611c77565b604082019050919050565b60006020820190508181036000830152611d0281611cc6565b9050919050565b7f436f6c6c61746572616c204164647265737320416c7265616479204164646564600082015250565b6000611d3f602083611961565b9150611d4a82611d09565b602082019050919050565b60006020820190508181036000830152611d6e81611d32565b9050919050565b6000604082019050611d8a6000830185611894565b611d976020830184611718565b9392505050565b7f536166654d6174683a207375627472616374696f6e206f766572666c6f770000600082015250565b6000611dd4601e83611961565b9150611ddf82611d9e565b602082019050919050565b60006020820190508181036000830152611e0381611dc7565b9050919050565b6000611e1582611636565b9150611e2083611636565b9250828203905081811115611e3857611e37611b02565b5b92915050565b6000606082019050611e536000830186611894565b611e606020830185611894565b611e6d6040830184611718565b949350505050565b6000611e8082611636565b9150611e8b83611636565b9250828201905080821115611ea357611ea2611b02565b5b92915050565b7f536166654d6174683a206164646974696f6e206f766572666c6f770000000000600082015250565b6000611edf601b83611961565b9150611eea82611ea9565b602082019050919050565b60006020820190508181036000830152611f0e81611ed2565b9050919050565b611f1e816118fe565b8114611f2957600080fd5b50565b600081519050611f3b81611f15565b92915050565b600060208284031215611f5757611f566115a4565b5b6000611f6584828501611f2c565b91505092915050565b7f5361666545524332303a204552433230206f7065726174696f6e20646964206e60008201527f6f74207375636365656400000000000000000000000000000000000000000000602082015250565b6000611fca602a83611961565b9150611fd582611f6e565b604082019050919050565b60006020820190508181036000830152611ff981611fbd565b9050919050565b7f456e756d657261626c655365743a20696e646578206f7574206f6620626f756e60008201527f6473000000000000000000000000000000000000000000000000000000000000602082015250565b600061205c602283611961565b915061206782612000565b604082019050919050565b6000602082019050818103600083015261208b8161204f565b9050919050565b7f4e487b7100000000000000000000000000000000000000000000000000000000600052603260045260246000fd5b7f4e487b7100000000000000000000000000000000000000000000000000000000600052603160045260246000fd5b7f416464726573733a20696e73756666696369656e742062616c616e636520666f60008201527f722063616c6c0000000000000000000000000000000000000000000000000000602082015250565b600061214c602683611961565b9150612157826120f0565b604082019050919050565b6000602082019050818103600083015261217b8161213f565b9050919050565b7f416464726573733a2063616c6c20746f206e6f6e2d636f6e7472616374000000600082015250565b60006121b8601d83611961565b91506121c382612182565b602082019050919050565b600060208201905081810360008301526121e7816121ab565b9050919050565b600081519050919050565b600081905092915050565b60005b83811015612222578082015181840152602081019050612207565b60008484015250505050565b6000612239826121ee565b61224381856121f9565b9350612253818560208601612204565b80840191505092915050565b600061226b828461222e565b915081905092915050565b600081519050919050565b6000601f19601f8301169050919050565b600061229d82612276565b6122a78185611961565b93506122b7818560208601612204565b6122c081612281565b840191505092915050565b600060208201905081810360008301526122e58184612292565b90509291505056fea26469706673582212206b7cffd7f340139679a8239b1708537ecd2430f1ef85a6e582c76468f8fca80564736f6c63430008140033",
  "linkReferences": {},
  "deployedLinkReferences": {}
}