{
  "_format": "hh-sol-artifact-1",
  "contractName": "USDReserves",
  "sourceName": "contracts/ReserveContract.sol",
  "abi": [
    {
      "inputs": [],
      "stateMutability": "nonpayable",
      "type": "constructor"
    },
    {
      "anonymous": false,
      "inputs": [
        {
          "indexed": true,
          "internalType": "address",
          "name": "previousOwner",
          "type": "address"
        },
        {
          "indexed": true,
          "internalType": "address",
          "name": "newOwner",
          "type": "address"
        }
      ],
      "name": "OwnershipTransferred",
      "type": "event"
    },
    {
      "anonymous": false,
      "inputs": [
        {
          "indexed": true,
          "internalType": "bytes32",
          "name": "role",
          "type": "bytes32"
        },
        {
          "indexed": true,
          "internalType": "bytes32",
          "name": "previousAdminRole",
          "type": "bytes32"
        },
        {
          "indexed": true,
          "internalType": "bytes32",
          "name": "newAdminRole",
          "type": "bytes32"
        }
      ],
      "name": "RoleAdminChanged",
      "type": "event"
    },
    {
      "anonymous": false,
      "inputs": [
        {
          "indexed": true,
          "internalType": "bytes32",
          "name": "role",
          "type": "bytes32"
        },
        {
          "indexed": true,
          "internalType": "address",
          "name": "account",
          "type": "address"
        },
        {
          "indexed": true,
          "internalType": "address",
          "name": "sender",
          "type": "address"
        }
      ],
      "name": "RoleGranted",
      "type": "event"
    },
    {
      "anonymous": false,
      "inputs": [
        {
          "indexed": true,
          "internalType": "bytes32",
          "name": "role",
          "type": "bytes32"
        },
        {
          "indexed": true,
          "internalType": "address",
          "name": "account",
          "type": "address"
        },
        {
          "indexed": true,
          "internalType": "address",
          "name": "sender",
          "type": "address"
        }
      ],
      "name": "RoleRevoked",
      "type": "event"
    },
    {
      "anonymous": false,
      "inputs": [
        {
          "indexed": true,
          "internalType": "uint256",
          "name": "vid",
          "type": "uint256"
        },
        {
          "indexed": false,
          "internalType": "uint256",
          "name": "amount",
          "type": "uint256"
        }
      ],
      "name": "Withdraw",
      "type": "event"
    },
    {
      "anonymous": false,
      "inputs": [
        {
          "indexed": true,
          "internalType": "uint256",
          "name": "vid",
          "type": "uint256"
        },
        {
          "indexed": false,
          "internalType": "uint256",
          "name": "amount",
          "type": "uint256"
        }
      ],
      "name": "deposit",
      "type": "event"
    },
    {
      "inputs": [],
      "name": "DEFAULT_ADMIN_ROLE",
      "outputs": [
        {
          "internalType": "bytes32",
          "name": "",
          "type": "bytes32"
        }
      ],
      "stateMutability": "view",
      "type": "function"
    },
    {
      "inputs": [],
      "name": "MANAGER_ROLE",
      "outputs": [
        {
          "internalType": "bytes32",
          "name": "",
          "type": "bytes32"
        }
      ],
      "stateMutability": "view",
      "type": "function"
    },
    {
      "inputs": [
        {
          "internalType": "uint256",
          "name": "",
          "type": "uint256"
        }
      ],
      "name": "_rsvVault",
      "outputs": [
        {
          "internalType": "contract IERC20",
          "name": "collateral",
          "type": "address"
        },
        {
          "internalType": "uint256",
          "name": "amount",
          "type": "uint256"
        }
      ],
      "stateMutability": "view",
      "type": "function"
    },
    {
      "inputs": [
        {
          "internalType": "contract IERC20",
          "name": "_collateral",
          "type": "address"
        }
      ],
      "name": "addReserveVault",
      "outputs": [],
      "stateMutability": "nonpayable",
      "type": "function"
    },
    {
      "inputs": [],
      "name": "currentReserveId",
      "outputs": [
        {
          "internalType": "uint256",
          "name": "",
          "type": "uint256"
        }
      ],
      "stateMutability": "view",
      "type": "function"
    },
    {
      "inputs": [
        {
          "internalType": "uint256",
          "name": "vid",
          "type": "uint256"
        },
        {
          "internalType": "uint256",
          "name": "amount",
          "type": "uint256"
        }
      ],
      "name": "depositCollateral",
      "outputs": [],
      "stateMutability": "nonpayable",
      "type": "function"
    },
    {
      "inputs": [
        {
          "internalType": "bytes32",
          "name": "role",
          "type": "bytes32"
        }
      ],
      "name": "getRoleAdmin",
      "outputs": [
        {
          "internalType": "bytes32",
          "name": "",
          "type": "bytes32"
        }
      ],
      "stateMutability": "view",
      "type": "function"
    },
    {
      "inputs": [
        {
          "internalType": "bytes32",
          "name": "role",
          "type": "bytes32"
        },
        {
          "internalType": "uint256",
          "name": "index",
          "type": "uint256"
        }
      ],
      "name": "getRoleMember",
      "outputs": [
        {
          "internalType": "address",
          "name": "",
          "type": "address"
        }
      ],
      "stateMutability": "view",
      "type": "function"
    },
    {
      "inputs": [
        {
          "internalType": "bytes32",
          "name": "role",
          "type": "bytes32"
        }
      ],
      "name": "getRoleMemberCount",
      "outputs": [
        {
          "internalType": "uint256",
          "name": "",
          "type": "uint256"
        }
      ],
      "stateMutability": "view",
      "type": "function"
    },
    {
      "inputs": [
        {
          "internalType": "bytes32",
          "name": "role",
          "type": "bytes32"
        },
        {
          "internalType": "address",
          "name": "account",
          "type": "address"
        }
      ],
      "name": "grantRole",
      "outputs": [],
      "stateMutability": "nonpayable",
      "type": "function"
    },
    {
      "inputs": [
        {
          "internalType": "bytes32",
          "name": "role",
          "type": "bytes32"
        },
        {
          "internalType": "address",
          "name": "account",
          "type": "address"
        }
      ],
      "name": "hasRole",
      "outputs": [
        {
          "internalType": "bool",
          "name": "",
          "type": "bool"
        }
      ],
      "stateMutability": "view",
      "type": "function"
    },
    {
      "inputs": [],
      "name": "owner",
      "outputs": [
        {
          "internalType": "address",
          "name": "",
          "type": "address"
        }
      ],
      "stateMutability": "view",
      "type": "function"
    },
    {
      "inputs": [],
      "name": "renounceOwnership",
      "outputs": [],
      "stateMutability": "nonpayable",
      "type": "function"
    },
    {
      "inputs": [
        {
          "internalType": "bytes32",
          "name": "role",
          "type": "bytes32"
        },
        {
          "internalType": "address",
          "name": "account",
          "type": "address"
        }
      ],
      "name": "renounceRole",
      "outputs": [],
      "stateMutability": "nonpayable",
      "type": "function"
    },
    {
      "inputs": [
        {
          "internalType": "bytes32",
          "name": "role",
          "type": "bytes32"
        },
        {
          "internalType": "address",
          "name": "account",
          "type": "address"
        }
      ],
      "name": "revokeRole",
      "outputs": [],
      "stateMutability": "nonpayable",
      "type": "function"
    },
    {
      "inputs": [
        {
          "internalType": "address",
          "name": "newOwner",
          "type": "address"
        }
      ],
      "name": "transferOwnership",
      "outputs": [],
      "stateMutability": "nonpayable",
      "type": "function"
    },
    {
      "inputs": [
        {
          "internalType": "uint256",
          "name": "vid",
          "type": "uint256"
        },
        {
          "internalType": "uint256",
          "name": "amount",
          "type": "uint256"
        }
      ],
      "name": "withdrawCollateral",
      "outputs": [],
      "stateMutability": "nonpayable",
      "type": "function"
    }
  ],
  "bytecode": "0x60806040523480156200001157600080fd5b506000620000246200013460201b60201c565b9050806000806101000a81548173ffffffffffffffffffffffffffffffffffffffff021916908373ffffffffffffffffffffffffffffffffffffffff1602179055508073ffffffffffffffffffffffffffffffffffffffff16600073ffffffffffffffffffffffffffffffffffffffff167f8be0079c531659141344cd1fd0a4f28419497f9722a3daafe3b4186f6b6457e060405160405180910390a35060018081905550620000ed6000801b620000e16200013460201b60201c565b6200013c60201b60201c565b6200012e7f241ecf16d79d0f8dbfb92cbc07fe17840425976cf0667f022fe9877caa831b08620001226200013460201b60201c565b6200013c60201b60201c565b620002c6565b600033905090565b6200014e82826200015260201b60201c565b5050565b6200017c8160026000858152602001908152602001600020600001620001f160201b90919060201c565b15620001ed57620001926200013460201b60201c565b73ffffffffffffffffffffffffffffffffffffffff168173ffffffffffffffffffffffffffffffffffffffff16837f2f8788117e7eff1d82e926ec794901d17c78024a50270940304540a733656f0d60405160405180910390a45b5050565b600062000221836000018373ffffffffffffffffffffffffffffffffffffffff1660001b6200022960201b60201c565b905092915050565b60006200023d8383620002a360201b60201c565b620002985782600001829080600181540180825580915050600190039060005260206000200160009091909190915055826000018054905083600101600084815260200190815260200160002081905550600190506200029d565b600090505b92915050565b600080836001016000848152602001908152602001600020541415905092915050565b61231d80620002d66000396000f3fe608060405234801561001057600080fd5b506004361061010b5760003560e01c80638da5cb5b116100a2578063ca15c87311610071578063ca15c873146102a5578063d547741f146102d5578063ec87621c146102f1578063ece137321461030f578063f2fde38b1461032b5761010b565b80638da5cb5b146102095780639010d07c1461022757806391d1485414610257578063a217fddf146102875761010b565b80633b61f098116100de5780633b61f098146101a95780635306f102146101c5578063715018a6146101e3578063767a7b05146101ed5761010b565b8063248a9ca314610110578063279ba28d146101405780632f2ff15d1461017157806336568abe1461018d575b600080fd5b61012a600480360381019061012591906115d9565b610347565b6040516101379190611615565b60405180910390f35b61015a60048036038101906101559190611666565b610367565b604051610168929190611721565b60405180910390f35b61018b60048036038101906101869190611788565b6103ab565b005b6101a760048036038101906101a29190611788565b61041f565b005b6101c360048036038101906101be9190611806565b6104a2565b005b6101cd61058d565b6040516101da9190611833565b60405180910390f35b6101eb610593565b005b6102076004803603810190610202919061184e565b6106cd565b005b610211610831565b60405161021e919061189d565b60405180910390f35b610241600480360381019061023c91906118b8565b61085a565b60405161024e919061189d565b60405180910390f35b610271600480360381019061026c9190611788565b61088c565b60405161027e9190611913565b60405180910390f35b61028f6108be565b60405161029c9190611615565b60405180910390f35b6102bf60048036038101906102ba91906115d9565b6108c5565b6040516102cc9190611833565b60405180910390f35b6102ef60048036038101906102ea9190611788565b6108ec565b005b6102f9610960565b6040516103069190611615565b60405180910390f35b6103296004803603810190610324919061184e565b610984565b005b6103456004803603810190610340919061192e565b610ae2565b005b600060026000838152602001908152602001600020600201549050919050565b60046020528060005260406000206000915090508060000160009054906101000a900473ffffffffffffffffffffffffffffffffffffffff16908060010154905082565b6103d260026000848152602001908152602001600020600201546103cd610c8a565b61088c565b610411576040517f08c379a0000000000000000000000000000000000000000000000000000000008152600401610408906119de565b60405180910390fd5b61041b8282610c92565b5050565b610427610c8a565b73ffffffffffffffffffffffffffffffffffffffff168173ffffffffffffffffffffffffffffffffffffffff1614610494576040517f08c379a000000000000000000000000000000000000000000000000000000000815260040161048b90611a70565b60405180910390fd5b61049e8282610d26565b5050565b6104d37f241ecf16d79d0f8dbfb92cbc07fe17840425976cf0667f022fe9877caa831b086104ce610c8a565b61088c565b610512576040517f08c379a000000000000000000000000000000000000000000000000000000000815260040161050990611adc565b60405180910390fd5b61051b81610dba565b8060046000600354815260200190815260200160002060000160006101000a81548173ffffffffffffffffffffffffffffffffffffffff021916908373ffffffffffffffffffffffffffffffffffffffff1602179055506003600081548092919061058590611b2b565b919050555050565b60035481565b61059b610c8a565b73ffffffffffffffffffffffffffffffffffffffff166105b9610831565b73ffffffffffffffffffffffffffffffffffffffff161461060f576040517f08c379a000000000000000000000000000000000000000000000000000000000815260040161060690611bbf565b60405180910390fd5b600073ffffffffffffffffffffffffffffffffffffffff1660008054906101000a900473ffffffffffffffffffffffffffffffffffffffff1673ffffffffffffffffffffffffffffffffffffffff167f8be0079c531659141344cd1fd0a4f28419497f9722a3daafe3b4186f6b6457e060405160405180910390a360008060006101000a81548173ffffffffffffffffffffffffffffffffffffffff021916908373ffffffffffffffffffffffffffffffffffffffff160217905550565b6106fe7f241ecf16d79d0f8dbfb92cbc07fe17840425976cf0667f022fe9877caa831b086106f9610c8a565b61088c565b61073d576040517f08c379a000000000000000000000000000000000000000000000000000000000815260040161073490611adc565b60405180910390fd5b60006004600084815260200190815260200160002060000160009054906101000a900473ffffffffffffffffffffffffffffffffffffffff16905060006004600085815260200190815260200160002060010154905082811061082b576107c533848473ffffffffffffffffffffffffffffffffffffffff16610e7c9092919063ffffffff16565b6107d88382610f0290919063ffffffff16565b6004600086815260200190815260200160002060010181905550837f56ca301a9219608c91e7bcee90e083c19671d2cdcc96752c7af291cee5f9c8c8846040516108229190611833565b60405180910390a25b50505050565b60008060009054906101000a900473ffffffffffffffffffffffffffffffffffffffff16905090565b60006108848260026000868152602001908152602001600020600001610f5b90919063ffffffff16565b905092915050565b60006108b68260026000868152602001908152602001600020600001610f7590919063ffffffff16565b905092915050565b6000801b81565b60006108e560026000848152602001908152602001600020600001610fa5565b9050919050565b610913600260008481526020019081526020016000206002015461090e610c8a565b61088c565b610952576040517f08c379a000000000000000000000000000000000000000000000000000000000815260040161094990611c51565b60405180910390fd5b61095c8282610d26565b5050565b7f241ecf16d79d0f8dbfb92cbc07fe17840425976cf0667f022fe9877caa831b0881565b6109b57f241ecf16d79d0f8dbfb92cbc07fe17840425976cf0667f022fe9877caa831b086109b0610c8a565b61088c565b6109f4576040517f08c379a00000000000000000000000000000000000000000000000000000000081526004016109eb90611adc565b60405180910390fd5b60006004600084815260200190815260200160002060000160009054906101000a900473ffffffffffffffffffffffffffffffffffffffff169050610a5c3330848473ffffffffffffffffffffffffffffffffffffffff16610fba909392919063ffffffff16565b600060046000858152602001908152602001600020600101549050610a8a838261104390919063ffffffff16565b6004600086815260200190815260200160002060010181905550837fe2bbb158ea830e9efa91fa2a38c9708f9f6109a6c571d6a762b53a83776a3d6784604051610ad49190611833565b60405180910390a250505050565b610aea610c8a565b73ffffffffffffffffffffffffffffffffffffffff16610b08610831565b73ffffffffffffffffffffffffffffffffffffffff1614610b5e576040517f08c379a0000000000000000000000000000000000000000000000000000000008152600401610b5590611bbf565b60405180910390fd5b600073ffffffffffffffffffffffffffffffffffffffff168173ffffffffffffffffffffffffffffffffffffffff1603610bcd576040517f08c379a0000000000000000000000000000000000000000000000000000000008152600401610bc490611ce3565b60405180910390fd5b8073ffffffffffffffffffffffffffffffffffffffff1660008054906101000a900473ffffffffffffffffffffffffffffffffffffffff1673ffffffffffffffffffffffffffffffffffffffff167f8be0079c531659141344cd1fd0a4f28419497f9722a3daafe3b4186f6b6457e060405160405180910390a3806000806101000a81548173ffffffffffffffffffffffffffffffffffffffff021916908373ffffffffffffffffffffffffffffffffffffffff16021790555050565b600033905090565b610cba81600260008581526020019081526020016000206000016110a190919063ffffffff16565b15610d2257610cc7610c8a565b73ffffffffffffffffffffffffffffffffffffffff168173ffffffffffffffffffffffffffffffffffffffff16837f2f8788117e7eff1d82e926ec794901d17c78024a50270940304540a733656f0d60405160405180910390a45b5050565b610d4e81600260008581526020019081526020016000206000016110d190919063ffffffff16565b15610db657610d5b610c8a565b73ffffffffffffffffffffffffffffffffffffffff168173ffffffffffffffffffffffffffffffffffffffff16837ff6391f5c32d9c69d2a47ea670b442974b53935d1edc7fd64eb21e047a839171b60405160405180910390a45b5050565b60005b600354811015610e78578173ffffffffffffffffffffffffffffffffffffffff166004600083815260200190815260200160002060000160009054906101000a900473ffffffffffffffffffffffffffffffffffffffff1673ffffffffffffffffffffffffffffffffffffffff1603610e6b576040517f08c379a0000000000000000000000000000000000000000000000000000000008152600401610e6290611d4f565b60405180910390fd5b8080600101915050610dbd565b5050565b610efd8363a9059cbb60e01b8484604051602401610e9b929190611d6f565b604051602081830303815290604052907bffffffffffffffffffffffffffffffffffffffffffffffffffffffff19166020820180517bffffffffffffffffffffffffffffffffffffffffffffffffffffffff8381831617835250505050611101565b505050565b600082821115610f47576040517f08c379a0000000000000000000000000000000000000000000000000000000008152600401610f3e90611de4565b60405180910390fd5b8183610f539190611e04565b905092915050565b6000610f6a83600001836111c8565b60001c905092915050565b6000610f9d836000018373ffffffffffffffffffffffffffffffffffffffff1660001b61123c565b905092915050565b6000610fb38260000161125f565b9050919050565b61103d846323b872dd60e01b858585604051602401610fdb93929190611e38565b604051602081830303815290604052907bffffffffffffffffffffffffffffffffffffffffffffffffffffffff19166020820180517bffffffffffffffffffffffffffffffffffffffffffffffffffffffff8381831617835250505050611101565b50505050565b60008082846110529190611e6f565b905083811015611097576040517f08c379a000000000000000000000000000000000000000000000000000000000815260040161108e90611eef565b60405180910390fd5b8091505092915050565b60006110c9836000018373ffffffffffffffffffffffffffffffffffffffff1660001b611270565b905092915050565b60006110f9836000018373ffffffffffffffffffffffffffffffffffffffff1660001b6112e0565b905092915050565b6000611163826040518060400160405280602081526020017f5361666545524332303a206c6f772d6c6576656c2063616c6c206661696c65648152508573ffffffffffffffffffffffffffffffffffffffff166113f89092919063ffffffff16565b90506000815111156111c357808060200190518101906111839190611f3b565b6111c2576040517f08c379a00000000000000000000000000000000000000000000000000000000081526004016111b990611fda565b60405180910390fd5b5b505050565b600081836000018054905011611213576040517f08c379a000000000000000000000000000000000000000000000000000000000815260040161120a9061206c565b60405180910390fd5b8260000182815481106112295761122861208c565b5b9060005260206000200154905092915050565b600080836001016000848152602001908152602001600020541415905092915050565b600081600001805490509050919050565b600061127c838361123c565b6112d55782600001829080600181540180825580915050600190039060005260206000200160009091909190915055826000018054905083600101600084815260200190815260200160002081905550600190506112da565b600090505b92915050565b600080836001016000848152602001908152602001600020549050600081146113ec5760006001826113129190611e04565b905060006001866000018054905061132a9190611e04565b905060008660000182815481106113445761134361208c565b5b90600052602060002001549050808760000184815481106113685761136761208c565b5b90600052602060002001819055506001836113839190611e6f565b87600101600083815260200190815260200160002081905550866000018054806113b0576113af6120bb565b5b600190038181906000526020600020016000905590558660010160008781526020019081526020016000206000905560019450505050506113f2565b60009150505b92915050565b60606114078484600085611410565b90509392505050565b606082471015611455576040517f08c379a000000000000000000000000000000000000000000000000000000000815260040161144c9061215c565b60405180910390fd5b61145e85611524565b61149d576040517f08c379a0000000000000000000000000000000000000000000000000000000008152600401611494906121c8565b60405180910390fd5b6000808673ffffffffffffffffffffffffffffffffffffffff1685876040516114c69190612259565b60006040518083038185875af1925050503d8060008114611503576040519150601f19603f3d011682016040523d82523d6000602084013e611508565b606091505b5091509150611518828286611537565b92505050949350505050565b600080823b905060008111915050919050565b6060831561154757829050611597565b60008351111561155a5782518084602001fd5b816040517f08c379a000000000000000000000000000000000000000000000000000000000815260040161158e91906122c5565b60405180910390fd5b9392505050565b600080fd5b6000819050919050565b6115b6816115a3565b81146115c157600080fd5b50565b6000813590506115d3816115ad565b92915050565b6000602082840312156115ef576115ee61159e565b5b60006115fd848285016115c4565b91505092915050565b61160f816115a3565b82525050565b600060208201905061162a6000830184611606565b92915050565b6000819050919050565b61164381611630565b811461164e57600080fd5b50565b6000813590506116608161163a565b92915050565b60006020828403121561167c5761167b61159e565b5b600061168a84828501611651565b91505092915050565b600073ffffffffffffffffffffffffffffffffffffffff82169050919050565b6000819050919050565b60006116d86116d36116ce84611693565b6116b3565b611693565b9050919050565b60006116ea826116bd565b9050919050565b60006116fc826116df565b9050919050565b61170c816116f1565b82525050565b61171b81611630565b82525050565b60006040820190506117366000830185611703565b6117436020830184611712565b9392505050565b600061175582611693565b9050919050565b6117658161174a565b811461177057600080fd5b50565b6000813590506117828161175c565b92915050565b6000806040838503121561179f5761179e61159e565b5b60006117ad858286016115c4565b92505060206117be85828601611773565b9150509250929050565b60006117d38261174a565b9050919050565b6117e3816117c8565b81146117ee57600080fd5b50565b600081359050611800816117da565b92915050565b60006020828403121561181c5761181b61159e565b5b600061182a848285016117f1565b91505092915050565b60006020820190506118486000830184611712565b92915050565b600080604083850312156118655761186461159e565b5b600061187385828601611651565b925050602061188485828601611651565b9150509250929050565b6118978161174a565b82525050565b60006020820190506118b2600083018461188e565b92915050565b600080604083850312156118cf576118ce61159e565b5b60006118dd858286016115c4565b92505060206118ee85828601611651565b9150509250929050565b60008115159050919050565b61190d816118f8565b82525050565b60006020820190506119286000830184611904565b92915050565b6000602082840312156119445761194361159e565b5b600061195284828501611773565b91505092915050565b600082825260208201905092915050565b7f416363657373436f6e74726f6c3a2073656e646572206d75737420626520616e60008201527f2061646d696e20746f206772616e740000000000000000000000000000000000602082015250565b60006119c8602f8361195b565b91506119d38261196c565b604082019050919050565b600060208201905081810360008301526119f7816119bb565b9050919050565b7f416363657373436f6e74726f6c3a2063616e206f6e6c792072656e6f756e636560008201527f20726f6c657320666f722073656c660000000000000000000000000000000000602082015250565b6000611a5a602f8361195b565b9150611a65826119fe565b604082019050919050565b60006020820190508181036000830152611a8981611a4d565b9050919050565b7f4e6f7420616c6c6f776564000000000000000000000000000000000000000000600082015250565b6000611ac6600b8361195b565b9150611ad182611a90565b602082019050919050565b60006020820190508181036000830152611af581611ab9565b9050919050565b7f4e487b7100000000000000000000000000000000000000000000000000000000600052601160045260246000fd5b6000611b3682611630565b91507fffffffffffffffffffffffffffffffffffffffffffffffffffffffffffffffff8203611b6857611b67611afc565b5b600182019050919050565b7f4f776e61626c653a2063616c6c6572206973206e6f7420746865206f776e6572600082015250565b6000611ba960208361195b565b9150611bb482611b73565b602082019050919050565b60006020820190508181036000830152611bd881611b9c565b9050919050565b7f416363657373436f6e74726f6c3a2073656e646572206d75737420626520616e60008201527f2061646d696e20746f207265766f6b6500000000000000000000000000000000602082015250565b6000611c3b60308361195b565b9150611c4682611bdf565b604082019050919050565b60006020820190508181036000830152611c6a81611c2e565b9050919050565b7f4f776e61626c653a206e6577206f776e657220697320746865207a65726f206160008201527f6464726573730000000000000000000000000000000000000000000000000000602082015250565b6000611ccd60268361195b565b9150611cd882611c71565b604082019050919050565b60006020820190508181036000830152611cfc81611cc0565b9050919050565b7f436f6c6c61746572616c204164647265737320416c7265616479204164646564600082015250565b6000611d3960208361195b565b9150611d4482611d03565b602082019050919050565b60006020820190508181036000830152611d6881611d2c565b9050919050565b6000604082019050611d84600083018561188e565b611d916020830184611712565b9392505050565b7f536166654d6174683a207375627472616374696f6e206f766572666c6f770000600082015250565b6000611dce601e8361195b565b9150611dd982611d98565b602082019050919050565b60006020820190508181036000830152611dfd81611dc1565b9050919050565b6000611e0f82611630565b9150611e1a83611630565b9250828203905081811115611e3257611e31611afc565b5b92915050565b6000606082019050611e4d600083018661188e565b611e5a602083018561188e565b611e676040830184611712565b949350505050565b6000611e7a82611630565b9150611e8583611630565b9250828201905080821115611e9d57611e9c611afc565b5b92915050565b7f536166654d6174683a206164646974696f6e206f766572666c6f770000000000600082015250565b6000611ed9601b8361195b565b9150611ee482611ea3565b602082019050919050565b60006020820190508181036000830152611f0881611ecc565b9050919050565b611f18816118f8565b8114611f2357600080fd5b50565b600081519050611f3581611f0f565b92915050565b600060208284031215611f5157611f5061159e565b5b6000611f5f84828501611f26565b91505092915050565b7f5361666545524332303a204552433230206f7065726174696f6e20646964206e60008201527f6f74207375636365656400000000000000000000000000000000000000000000602082015250565b6000611fc4602a8361195b565b9150611fcf82611f68565b604082019050919050565b60006020820190508181036000830152611ff381611fb7565b9050919050565b7f456e756d657261626c655365743a20696e646578206f7574206f6620626f756e60008201527f6473000000000000000000000000000000000000000000000000000000000000602082015250565b600061205660228361195b565b915061206182611ffa565b604082019050919050565b6000602082019050818103600083015261208581612049565b9050919050565b7f4e487b7100000000000000000000000000000000000000000000000000000000600052603260045260246000fd5b7f4e487b7100000000000000000000000000000000000000000000000000000000600052603160045260246000fd5b7f416464726573733a20696e73756666696369656e742062616c616e636520666f60008201527f722063616c6c0000000000000000000000000000000000000000000000000000602082015250565b600061214660268361195b565b9150612151826120ea565b604082019050919050565b6000602082019050818103600083015261217581612139565b9050919050565b7f416464726573733a2063616c6c20746f206e6f6e2d636f6e7472616374000000600082015250565b60006121b2601d8361195b565b91506121bd8261217c565b602082019050919050565b600060208201905081810360008301526121e1816121a5565b9050919050565b600081519050919050565b600081905092915050565b60005b8381101561221c578082015181840152602081019050612201565b60008484015250505050565b6000612233826121e8565b61223d81856121f3565b935061224d8185602086016121fe565b80840191505092915050565b60006122658284612228565b915081905092915050565b600081519050919050565b6000601f19601f8301169050919050565b600061229782612270565b6122a1818561195b565b93506122b18185602086016121fe565b6122ba8161227b565b840191505092915050565b600060208201905081810360008301526122df818461228c565b90509291505056fea2646970667358221220e1d240e1d887630f588a80148cbb0fd2a7f63005a363976edf2aea334fec547c64736f6c63430008180033",
  "linkReferences": {},
  "deployedLinkReferences": {}
}