{
  "_format": "hh-sol-artifact-1",
  "contractName": "AUSD",
  "sourceName": "contracts/AUSD.sol",
  "abi": [
    {
      "inputs": [],
      "stateMutability": "nonpayable",
      "type": "constructor"
    },
    {
      "anonymous": false,
      "inputs": [
        {
          "indexed": true,
          "internalType": "address",
          "name": "owner",
          "type": "address"
        },
        {
          "indexed": true,
          "internalType": "address",
          "name": "spender",
          "type": "address"
        },
        {
          "indexed": false,
          "internalType": "uint256",
          "name": "value",
          "type": "uint256"
        }
      ],
      "name": "Approval",
      "type": "event"
    },
    {
      "anonymous": false,
      "inputs": [
        {
          "indexed": true,
          "internalType": "address",
          "name": "previousOwner",
          "type": "address"
        },
        {
          "indexed": true,
          "internalType": "address",
          "name": "newOwner",
          "type": "address"
        }
      ],
      "name": "OwnershipTransferred",
      "type": "event"
    },
    {
      "anonymous": false,
      "inputs": [
        {
          "indexed": true,
          "internalType": "bytes32",
          "name": "role",
          "type": "bytes32"
        },
        {
          "indexed": true,
          "internalType": "bytes32",
          "name": "previousAdminRole",
          "type": "bytes32"
        },
        {
          "indexed": true,
          "internalType": "bytes32",
          "name": "newAdminRole",
          "type": "bytes32"
        }
      ],
      "name": "RoleAdminChanged",
      "type": "event"
    },
    {
      "anonymous": false,
      "inputs": [
        {
          "indexed": true,
          "internalType": "bytes32",
          "name": "role",
          "type": "bytes32"
        },
        {
          "indexed": true,
          "internalType": "address",
          "name": "account",
          "type": "address"
        },
        {
          "indexed": true,
          "internalType": "address",
          "name": "sender",
          "type": "address"
        }
      ],
      "name": "RoleGranted",
      "type": "event"
    },
    {
      "anonymous": false,
      "inputs": [
        {
          "indexed": true,
          "internalType": "bytes32",
          "name": "role",
          "type": "bytes32"
        },
        {
          "indexed": true,
          "internalType": "address",
          "name": "account",
          "type": "address"
        },
        {
          "indexed": true,
          "internalType": "address",
          "name": "sender",
          "type": "address"
        }
      ],
      "name": "RoleRevoked",
      "type": "event"
    },
    {
      "anonymous": false,
      "inputs": [
        {
          "indexed": true,
          "internalType": "address",
          "name": "from",
          "type": "address"
        },
        {
          "indexed": true,
          "internalType": "address",
          "name": "to",
          "type": "address"
        },
        {
          "indexed": false,
          "internalType": "uint256",
          "name": "value",
          "type": "uint256"
        }
      ],
      "name": "Transfer",
      "type": "event"
    },
    {
      "inputs": [],
      "name": "DEFAULT_ADMIN_ROLE",
      "outputs": [
        {
          "internalType": "bytes32",
          "name": "",
          "type": "bytes32"
        }
      ],
      "stateMutability": "view",
      "type": "function"
    },
    {
      "inputs": [],
      "name": "MANAGER_ROLE",
      "outputs": [
        {
          "internalType": "bytes32",
          "name": "",
          "type": "bytes32"
        }
      ],
      "stateMutability": "view",
      "type": "function"
    },
    {
      "inputs": [
        {
          "internalType": "address",
          "name": "owner",
          "type": "address"
        },
        {
          "internalType": "address",
          "name": "spender",
          "type": "address"
        }
      ],
      "name": "allowance",
      "outputs": [
        {
          "internalType": "uint256",
          "name": "",
          "type": "uint256"
        }
      ],
      "stateMutability": "view",
      "type": "function"
    },
    {
      "inputs": [
        {
          "internalType": "address",
          "name": "spender",
          "type": "address"
        },
        {
          "internalType": "uint256",
          "name": "amount",
          "type": "uint256"
        }
      ],
      "name": "approve",
      "outputs": [
        {
          "internalType": "bool",
          "name": "",
          "type": "bool"
        }
      ],
      "stateMutability": "nonpayable",
      "type": "function"
    },
    {
      "inputs": [
        {
          "internalType": "address",
          "name": "account",
          "type": "address"
        }
      ],
      "name": "balanceOf",
      "outputs": [
        {
          "internalType": "uint256",
          "name": "",
          "type": "uint256"
        }
      ],
      "stateMutability": "view",
      "type": "function"
    },
    {
      "inputs": [
        {
          "internalType": "uint256",
          "name": "amount",
          "type": "uint256"
        }
      ],
      "name": "burn",
      "outputs": [],
      "stateMutability": "nonpayable",
      "type": "function"
    },
    {
      "inputs": [
        {
          "internalType": "address",
          "name": "account",
          "type": "address"
        },
        {
          "internalType": "uint256",
          "name": "amount",
          "type": "uint256"
        }
      ],
      "name": "burnFrom",
      "outputs": [],
      "stateMutability": "nonpayable",
      "type": "function"
    },
    {
      "inputs": [],
      "name": "decimals",
      "outputs": [
        {
          "internalType": "uint8",
          "name": "",
          "type": "uint8"
        }
      ],
      "stateMutability": "view",
      "type": "function"
    },
    {
      "inputs": [
        {
          "internalType": "address",
          "name": "spender",
          "type": "address"
        },
        {
          "internalType": "uint256",
          "name": "subtractedValue",
          "type": "uint256"
        }
      ],
      "name": "decreaseAllowance",
      "outputs": [
        {
          "internalType": "bool",
          "name": "",
          "type": "bool"
        }
      ],
      "stateMutability": "nonpayable",
      "type": "function"
    },
    {
      "inputs": [
        {
          "internalType": "bytes32",
          "name": "role",
          "type": "bytes32"
        }
      ],
      "name": "getRoleAdmin",
      "outputs": [
        {
          "internalType": "bytes32",
          "name": "",
          "type": "bytes32"
        }
      ],
      "stateMutability": "view",
      "type": "function"
    },
    {
      "inputs": [
        {
          "internalType": "bytes32",
          "name": "role",
          "type": "bytes32"
        },
        {
          "internalType": "uint256",
          "name": "index",
          "type": "uint256"
        }
      ],
      "name": "getRoleMember",
      "outputs": [
        {
          "internalType": "address",
          "name": "",
          "type": "address"
        }
      ],
      "stateMutability": "view",
      "type": "function"
    },
    {
      "inputs": [
        {
          "internalType": "bytes32",
          "name": "role",
          "type": "bytes32"
        }
      ],
      "name": "getRoleMemberCount",
      "outputs": [
        {
          "internalType": "uint256",
          "name": "",
          "type": "uint256"
        }
      ],
      "stateMutability": "view",
      "type": "function"
    },
    {
      "inputs": [
        {
          "internalType": "bytes32",
          "name": "role",
          "type": "bytes32"
        },
        {
          "internalType": "address",
          "name": "account",
          "type": "address"
        }
      ],
      "name": "grantRole",
      "outputs": [],
      "stateMutability": "nonpayable",
      "type": "function"
    },
    {
      "inputs": [
        {
          "internalType": "bytes32",
          "name": "role",
          "type": "bytes32"
        },
        {
          "internalType": "address",
          "name": "account",
          "type": "address"
        }
      ],
      "name": "hasRole",
      "outputs": [
        {
          "internalType": "bool",
          "name": "",
          "type": "bool"
        }
      ],
      "stateMutability": "view",
      "type": "function"
    },
    {
      "inputs": [
        {
          "internalType": "address",
          "name": "spender",
          "type": "address"
        },
        {
          "internalType": "uint256",
          "name": "addedValue",
          "type": "uint256"
        }
      ],
      "name": "increaseAllowance",
      "outputs": [
        {
          "internalType": "bool",
          "name": "",
          "type": "bool"
        }
      ],
      "stateMutability": "nonpayable",
      "type": "function"
    },
    {
      "inputs": [
        {
          "internalType": "uint256",
          "name": "amount",
          "type": "uint256"
        }
      ],
      "name": "mint",
      "outputs": [],
      "stateMutability": "nonpayable",
      "type": "function"
    },
    {
      "inputs": [],
      "name": "name",
      "outputs": [
        {
          "internalType": "string",
          "name": "",
          "type": "string"
        }
      ],
      "stateMutability": "view",
      "type": "function"
    },
    {
      "inputs": [],
      "name": "owner",
      "outputs": [
        {
          "internalType": "address",
          "name": "",
          "type": "address"
        }
      ],
      "stateMutability": "view",
      "type": "function"
    },
    {
      "inputs": [],
      "name": "renounceOwnership",
      "outputs": [],
      "stateMutability": "nonpayable",
      "type": "function"
    },
    {
      "inputs": [
        {
          "internalType": "bytes32",
          "name": "role",
          "type": "bytes32"
        },
        {
          "internalType": "address",
          "name": "account",
          "type": "address"
        }
      ],
      "name": "renounceRole",
      "outputs": [],
      "stateMutability": "nonpayable",
      "type": "function"
    },
    {
      "inputs": [
        {
          "internalType": "bytes32",
          "name": "role",
          "type": "bytes32"
        },
        {
          "internalType": "address",
          "name": "account",
          "type": "address"
        }
      ],
      "name": "revokeRole",
      "outputs": [],
      "stateMutability": "nonpayable",
      "type": "function"
    },
    {
      "inputs": [],
      "name": "symbol",
      "outputs": [
        {
          "internalType": "string",
          "name": "",
          "type": "string"
        }
      ],
      "stateMutability": "view",
      "type": "function"
    },
    {
      "inputs": [],
      "name": "totalSupply",
      "outputs": [
        {
          "internalType": "uint256",
          "name": "",
          "type": "uint256"
        }
      ],
      "stateMutability": "view",
      "type": "function"
    },
    {
      "inputs": [
        {
          "internalType": "address",
          "name": "recipient",
          "type": "address"
        },
        {
          "internalType": "uint256",
          "name": "amount",
          "type": "uint256"
        }
      ],
      "name": "transfer",
      "outputs": [
        {
          "internalType": "bool",
          "name": "",
          "type": "bool"
        }
      ],
      "stateMutability": "nonpayable",
      "type": "function"
    },
    {
      "inputs": [
        {
          "internalType": "address",
          "name": "sender",
          "type": "address"
        },
        {
          "internalType": "address",
          "name": "recipient",
          "type": "address"
        },
        {
          "internalType": "uint256",
          "name": "amount",
          "type": "uint256"
        }
      ],
      "name": "transferFrom",
      "outputs": [
        {
          "internalType": "bool",
          "name": "",
          "type": "bool"
        }
      ],
      "stateMutability": "nonpayable",
      "type": "function"
    },
    {
      "inputs": [
        {
          "internalType": "address",
          "name": "newOwner",
          "type": "address"
        }
      ],
      "name": "transferOwnership",
      "outputs": [],
      "stateMutability": "nonpayable",
      "type": "function"
    }
  ],
  "bytecode": "0x60806040523480156200001157600080fd5b506040518060400160405280600b81526020017f4155534420537461626c650000000000000000000000000000000000000000008152506040518060400160405280600481526020017f415553440000000000000000000000000000000000000000000000000000000081525081600390816200008f9190620005e8565b508060049081620000a19190620005e8565b506012600560006101000a81548160ff021916908360ff16021790555050506000620000d2620001dc60201b60201c565b905080600560016101000a81548173ffffffffffffffffffffffffffffffffffffffff021916908373ffffffffffffffffffffffffffffffffffffffff1602179055508073ffffffffffffffffffffffffffffffffffffffff16600073ffffffffffffffffffffffffffffffffffffffff167f8be0079c531659141344cd1fd0a4f28419497f9722a3daafe3b4186f6b6457e060405160405180910390a350620001956000801b62000189620001dc60201b60201c565b620001e460201b60201c565b620001d67f241ecf16d79d0f8dbfb92cbc07fe17840425976cf0667f022fe9877caa831b08620001ca620001dc60201b60201c565b620001e460201b60201c565b620006cf565b600033905090565b620001f68282620001fa60201b60201c565b5050565b6200022481600660008581526020019081526020016000206000016200029960201b90919060201c565b1562000295576200023a620001dc60201b60201c565b73ffffffffffffffffffffffffffffffffffffffff168173ffffffffffffffffffffffffffffffffffffffff16837f2f8788117e7eff1d82e926ec794901d17c78024a50270940304540a733656f0d60405160405180910390a45b5050565b6000620002c9836000018373ffffffffffffffffffffffffffffffffffffffff1660001b620002d160201b60201c565b905092915050565b6000620002e583836200034b60201b60201c565b6200034057826000018290806001815401808255809150506001900390600052602060002001600090919091909150558260000180549050836001016000848152602001908152602001600020819055506001905062000345565b600090505b92915050565b600080836001016000848152602001908152602001600020541415905092915050565b600081519050919050565b7f4e487b7100000000000000000000000000000000000000000000000000000000600052604160045260246000fd5b7f4e487b7100000000000000000000000000000000000000000000000000000000600052602260045260246000fd5b60006002820490506001821680620003f057607f821691505b602082108103620004065762000405620003a8565b5b50919050565b60008190508160005260206000209050919050565b60006020601f8301049050919050565b600082821b905092915050565b600060088302620004707fffffffffffffffffffffffffffffffffffffffffffffffffffffffffffffffff8262000431565b6200047c868362000431565b95508019841693508086168417925050509392505050565b6000819050919050565b6000819050919050565b6000620004c9620004c3620004bd8462000494565b6200049e565b62000494565b9050919050565b6000819050919050565b620004e583620004a8565b620004fd620004f482620004d0565b8484546200043e565b825550505050565b600090565b6200051462000505565b62000521818484620004da565b505050565b5b8181101562000549576200053d6000826200050a565b60018101905062000527565b5050565b601f821115620005985762000562816200040c565b6200056d8462000421565b810160208510156200057d578190505b620005956200058c8562000421565b83018262000526565b50505b505050565b600082821c905092915050565b6000620005bd600019846008026200059d565b1980831691505092915050565b6000620005d88383620005aa565b9150826002028217905092915050565b620005f3826200036e565b67ffffffffffffffff8111156200060f576200060e62000379565b5b6200061b8254620003d7565b620006288282856200054d565b600060209050601f8311600181146200066057600084156200064b578287015190505b620006578582620005ca565b865550620006c7565b601f19841662000670866200040c565b60005b828110156200069a5784890151825560018201915060208501945060208101905062000673565b86831015620006ba5784890151620006b6601f891682620005aa565b8355505b6001600288020188555050505b505050505050565b612c1180620006df6000396000f3fe608060405234801561001057600080fd5b506004361061018e5760003560e01c80638da5cb5b116100de578063a457c2d711610097578063d547741f11610071578063d547741f146104bd578063dd62ed3e146104d9578063ec87621c14610509578063f2fde38b146105275761018e565b8063a457c2d71461042d578063a9059cbb1461045d578063ca15c8731461048d5761018e565b80638da5cb5b146103575780639010d07c1461037557806391d14854146103a557806395d89b41146103d5578063a0712d68146103f3578063a217fddf1461040f5761018e565b8063313ce5671161014b57806342966c681161012557806342966c68146102e557806370a0823114610301578063715018a61461033157806379cc67901461033b5761018e565b8063313ce5671461027b57806336568abe1461029957806339509351146102b55761018e565b806306fdde0314610193578063095ea7b3146101b157806318160ddd146101e157806323b872dd146101ff578063248a9ca31461022f5780632f2ff15d1461025f575b600080fd5b61019b610543565b6040516101a89190611e47565b60405180910390f35b6101cb60048036038101906101c69190611f02565b6105d5565b6040516101d89190611f5d565b60405180910390f35b6101e96105f3565b6040516101f69190611f87565b60405180910390f35b61021960048036038101906102149190611fa2565b6105fd565b6040516102269190611f5d565b60405180910390f35b6102496004803603810190610244919061202b565b6106d6565b6040516102569190612067565b60405180910390f35b61027960048036038101906102749190612082565b6106f6565b005b61028361076a565b60405161029091906120de565b60405180910390f35b6102b360048036038101906102ae9190612082565b610781565b005b6102cf60048036038101906102ca9190611f02565b610804565b6040516102dc9190611f5d565b60405180910390f35b6102ff60048036038101906102fa91906120f9565b6108b7565b005b61031b60048036038101906103169190612126565b6108cb565b6040516103289190611f87565b60405180910390f35b610339610913565b005b61035560048036038101906103509190611f02565b610a50565b005b61035f610ab2565b60405161036c9190612162565b60405180910390f35b61038f600480360381019061038a919061217d565b610adc565b60405161039c9190612162565b60405180910390f35b6103bf60048036038101906103ba9190612082565b610b0e565b6040516103cc9190611f5d565b60405180910390f35b6103dd610b40565b6040516103ea9190611e47565b60405180910390f35b61040d600480360381019061040891906120f9565b610bd2565b005b610417610cff565b6040516104249190612067565b60405180910390f35b61044760048036038101906104429190611f02565b610d06565b6040516104549190611f5d565b60405180910390f35b61047760048036038101906104729190611f02565b610dd3565b6040516104849190611f5d565b60405180910390f35b6104a760048036038101906104a2919061202b565b610df1565b6040516104b49190611f87565b60405180910390f35b6104d760048036038101906104d29190612082565b610e18565b005b6104f360048036038101906104ee91906121bd565b610e8c565b6040516105009190611f87565b60405180910390f35b610511610f13565b60405161051e9190612067565b60405180910390f35b610541600480360381019061053c9190612126565b610f37565b005b6060600380546105529061222c565b80601f016020809104026020016040519081016040528092919081815260200182805461057e9061222c565b80156105cb5780601f106105a0576101008083540402835291602001916105cb565b820191906000526020600020905b8154815290600101906020018083116105ae57829003601f168201915b5050505050905090565b60006105e96105e26110e2565b84846110ea565b6001905092915050565b6000600254905090565b600061060a8484846112b3565b6106cb846106166110e2565b6106c685604051806060016040528060288152602001612b6b60289139600160008b73ffffffffffffffffffffffffffffffffffffffff1673ffffffffffffffffffffffffffffffffffffffff168152602001908152602001600020600061067c6110e2565b73ffffffffffffffffffffffffffffffffffffffff1673ffffffffffffffffffffffffffffffffffffffff168152602001908152602001600020546115469092919063ffffffff16565b6110ea565b600190509392505050565b600060066000838152602001908152602001600020600201549050919050565b61071d60066000848152602001908152602001600020600201546107186110e2565b610b0e565b61075c576040517f08c379a0000000000000000000000000000000000000000000000000000000008152600401610753906122cf565b60405180910390fd5b61076682826115a4565b5050565b6000600560009054906101000a900460ff16905090565b6107896110e2565b73ffffffffffffffffffffffffffffffffffffffff168173ffffffffffffffffffffffffffffffffffffffff16146107f6576040517f08c379a00000000000000000000000000000000000000000000000000000000081526004016107ed90612361565b60405180910390fd5b6108008282611638565b5050565b60006108ad6108116110e2565b846108a885600160006108226110e2565b73ffffffffffffffffffffffffffffffffffffffff1673ffffffffffffffffffffffffffffffffffffffff16815260200190815260200160002060008973ffffffffffffffffffffffffffffffffffffffff1673ffffffffffffffffffffffffffffffffffffffff168152602001908152602001600020546116cc90919063ffffffff16565b6110ea565b6001905092915050565b6108c86108c26110e2565b8261172a565b50565b60008060008373ffffffffffffffffffffffffffffffffffffffff1673ffffffffffffffffffffffffffffffffffffffff168152602001908152602001600020549050919050565b61091b6110e2565b73ffffffffffffffffffffffffffffffffffffffff16610939610ab2565b73ffffffffffffffffffffffffffffffffffffffff161461098f576040517f08c379a0000000000000000000000000000000000000000000000000000000008152600401610986906123cd565b60405180910390fd5b600073ffffffffffffffffffffffffffffffffffffffff16600560019054906101000a900473ffffffffffffffffffffffffffffffffffffffff1673ffffffffffffffffffffffffffffffffffffffff167f8be0079c531659141344cd1fd0a4f28419497f9722a3daafe3b4186f6b6457e060405160405180910390a36000600560016101000a81548173ffffffffffffffffffffffffffffffffffffffff021916908373ffffffffffffffffffffffffffffffffffffffff160217905550565b6000610a8f82604051806060016040528060248152602001612b9360249139610a8086610a7b6110e2565b610e8c565b6115469092919063ffffffff16565b9050610aa383610a9d6110e2565b836110ea565b610aad838361172a565b505050565b6000600560019054906101000a900473ffffffffffffffffffffffffffffffffffffffff16905090565b6000610b0682600660008681526020019081526020016000206000016118d790919063ffffffff16565b905092915050565b6000610b3882600660008681526020019081526020016000206000016118f190919063ffffffff16565b905092915050565b606060048054610b4f9061222c565b80601f0160208091040260200160405190810160405280929190818152602001828054610b7b9061222c565b8015610bc85780601f10610b9d57610100808354040283529160200191610bc8565b820191906000526020600020905b815481529060010190602001808311610bab57829003601f168201915b5050505050905090565b610c037f241ecf16d79d0f8dbfb92cbc07fe17840425976cf0667f022fe9877caa831b08610bfe6110e2565b610b0e565b610c42576040517f08c379a0000000000000000000000000000000000000000000000000000000008152600401610c3990612439565b60405180910390fd5b610c57816008546116cc90919063ffffffff16565b600881905550610caf81600760003373ffffffffffffffffffffffffffffffffffffffff1673ffffffffffffffffffffffffffffffffffffffff168152602001908152602001600020546116cc90919063ffffffff16565b600760003373ffffffffffffffffffffffffffffffffffffffff1673ffffffffffffffffffffffffffffffffffffffff16815260200190815260200160002081905550610cfc3382611921565b50565b6000801b81565b6000610dc9610d136110e2565b84610dc485604051806060016040528060258152602001612bb76025913960016000610d3d6110e2565b73ffffffffffffffffffffffffffffffffffffffff1673ffffffffffffffffffffffffffffffffffffffff16815260200190815260200160002060008a73ffffffffffffffffffffffffffffffffffffffff1673ffffffffffffffffffffffffffffffffffffffff168152602001908152602001600020546115469092919063ffffffff16565b6110ea565b6001905092915050565b6000610de7610de06110e2565b84846112b3565b6001905092915050565b6000610e1160066000848152602001908152602001600020600001611ab4565b9050919050565b610e3f6006600084815260200190815260200160002060020154610e3a6110e2565b610b0e565b610e7e576040517f08c379a0000000000000000000000000000000000000000000000000000000008152600401610e75906124cb565b60405180910390fd5b610e888282611638565b5050565b6000600160008473ffffffffffffffffffffffffffffffffffffffff1673ffffffffffffffffffffffffffffffffffffffff16815260200190815260200160002060008373ffffffffffffffffffffffffffffffffffffffff1673ffffffffffffffffffffffffffffffffffffffff16815260200190815260200160002054905092915050565b7f241ecf16d79d0f8dbfb92cbc07fe17840425976cf0667f022fe9877caa831b0881565b610f3f6110e2565b73ffffffffffffffffffffffffffffffffffffffff16610f5d610ab2565b73ffffffffffffffffffffffffffffffffffffffff1614610fb3576040517f08c379a0000000000000000000000000000000000000000000000000000000008152600401610faa906123cd565b60405180910390fd5b600073ffffffffffffffffffffffffffffffffffffffff168173ffffffffffffffffffffffffffffffffffffffff1603611022576040517f08c379a00000000000000000000000000000000000000000000000000000000081526004016110199061255d565b60405180910390fd5b8073ffffffffffffffffffffffffffffffffffffffff16600560019054906101000a900473ffffffffffffffffffffffffffffffffffffffff1673ffffffffffffffffffffffffffffffffffffffff167f8be0079c531659141344cd1fd0a4f28419497f9722a3daafe3b4186f6b6457e060405160405180910390a380600560016101000a81548173ffffffffffffffffffffffffffffffffffffffff021916908373ffffffffffffffffffffffffffffffffffffffff16021790555050565b600033905090565b600073ffffffffffffffffffffffffffffffffffffffff168373ffffffffffffffffffffffffffffffffffffffff1603611159576040517f08c379a0000000000000000000000000000000000000000000000000000000008152600401611150906125ef565b60405180910390fd5b600073ffffffffffffffffffffffffffffffffffffffff168273ffffffffffffffffffffffffffffffffffffffff16036111c8576040517f08c379a00000000000000000000000000000000000000000000000000000000081526004016111bf90612681565b60405180910390fd5b80600160008573ffffffffffffffffffffffffffffffffffffffff1673ffffffffffffffffffffffffffffffffffffffff16815260200190815260200160002060008473ffffffffffffffffffffffffffffffffffffffff1673ffffffffffffffffffffffffffffffffffffffff168152602001908152602001600020819055508173ffffffffffffffffffffffffffffffffffffffff168373ffffffffffffffffffffffffffffffffffffffff167f8c5be1e5ebec7d5bd14f71427d1e84f3dd0314c0f7b2291e5b200ac8c7c3b925836040516112a69190611f87565b60405180910390a3505050565b600073ffffffffffffffffffffffffffffffffffffffff168373ffffffffffffffffffffffffffffffffffffffff1603611322576040517f08c379a000000000000000000000000000000000000000000000000000000000815260040161131990612713565b60405180910390fd5b600073ffffffffffffffffffffffffffffffffffffffff168273ffffffffffffffffffffffffffffffffffffffff1603611391576040517f08c379a0000000000000000000000000000000000000000000000000000000008152600401611388906127a5565b60405180910390fd5b61139c838383611ac9565b61140781604051806060016040528060268152602001612b45602691396000808773ffffffffffffffffffffffffffffffffffffffff1673ffffffffffffffffffffffffffffffffffffffff168152602001908152602001600020546115469092919063ffffffff16565b6000808573ffffffffffffffffffffffffffffffffffffffff1673ffffffffffffffffffffffffffffffffffffffff1681526020019081526020016000208190555061149a816000808573ffffffffffffffffffffffffffffffffffffffff1673ffffffffffffffffffffffffffffffffffffffff168152602001908152602001600020546116cc90919063ffffffff16565b6000808473ffffffffffffffffffffffffffffffffffffffff1673ffffffffffffffffffffffffffffffffffffffff168152602001908152602001600020819055508173ffffffffffffffffffffffffffffffffffffffff168373ffffffffffffffffffffffffffffffffffffffff167fddf252ad1be2c89b69c2b068fc378daa952ba7f163c4a11628f55a4df523b3ef836040516115399190611f87565b60405180910390a3505050565b600083831115829061158e576040517f08c379a00000000000000000000000000000000000000000000000000000000081526004016115859190611e47565b60405180910390fd5b50828461159b91906127f4565b90509392505050565b6115cc8160066000858152602001908152602001600020600001611ace90919063ffffffff16565b15611634576115d96110e2565b73ffffffffffffffffffffffffffffffffffffffff168173ffffffffffffffffffffffffffffffffffffffff16837f2f8788117e7eff1d82e926ec794901d17c78024a50270940304540a733656f0d60405160405180910390a45b5050565b6116608160066000858152602001908152602001600020600001611afe90919063ffffffff16565b156116c85761166d6110e2565b73ffffffffffffffffffffffffffffffffffffffff168173ffffffffffffffffffffffffffffffffffffffff16837ff6391f5c32d9c69d2a47ea670b442974b53935d1edc7fd64eb21e047a839171b60405160405180910390a45b5050565b60008082846116db9190612828565b905083811015611720576040517f08c379a0000000000000000000000000000000000000000000000000000000008152600401611717906128a8565b60405180910390fd5b8091505092915050565b600073ffffffffffffffffffffffffffffffffffffffff168273ffffffffffffffffffffffffffffffffffffffff1603611799576040517f08c379a00000000000000000000000000000000000000000000000000000000081526004016117909061293a565b60405180910390fd5b6117a582600083611ac9565b61181081604051806060016040528060228152602001612b23602291396000808673ffffffffffffffffffffffffffffffffffffffff1673ffffffffffffffffffffffffffffffffffffffff168152602001908152602001600020546115469092919063ffffffff16565b6000808473ffffffffffffffffffffffffffffffffffffffff1673ffffffffffffffffffffffffffffffffffffffff1681526020019081526020016000208190555061186781600254611b2e90919063ffffffff16565b600281905550600073ffffffffffffffffffffffffffffffffffffffff168273ffffffffffffffffffffffffffffffffffffffff167fddf252ad1be2c89b69c2b068fc378daa952ba7f163c4a11628f55a4df523b3ef836040516118cb9190611f87565b60405180910390a35050565b60006118e68360000183611b87565b60001c905092915050565b6000611919836000018373ffffffffffffffffffffffffffffffffffffffff1660001b611bfb565b905092915050565b600073ffffffffffffffffffffffffffffffffffffffff168273ffffffffffffffffffffffffffffffffffffffff1603611990576040517f08c379a0000000000000000000000000000000000000000000000000000000008152600401611987906129a6565b60405180910390fd5b61199c60008383611ac9565b6119b1816002546116cc90919063ffffffff16565b600281905550611a08816000808573ffffffffffffffffffffffffffffffffffffffff1673ffffffffffffffffffffffffffffffffffffffff168152602001908152602001600020546116cc90919063ffffffff16565b6000808473ffffffffffffffffffffffffffffffffffffffff1673ffffffffffffffffffffffffffffffffffffffff168152602001908152602001600020819055508173ffffffffffffffffffffffffffffffffffffffff16600073ffffffffffffffffffffffffffffffffffffffff167fddf252ad1be2c89b69c2b068fc378daa952ba7f163c4a11628f55a4df523b3ef83604051611aa89190611f87565b60405180910390a35050565b6000611ac282600001611c1e565b9050919050565b505050565b6000611af6836000018373ffffffffffffffffffffffffffffffffffffffff1660001b611c2f565b905092915050565b6000611b26836000018373ffffffffffffffffffffffffffffffffffffffff1660001b611c9f565b905092915050565b600082821115611b73576040517f08c379a0000000000000000000000000000000000000000000000000000000008152600401611b6a90612a12565b60405180910390fd5b8183611b7f91906127f4565b905092915050565b600081836000018054905011611bd2576040517f08c379a0000000000000000000000000000000000000000000000000000000008152600401611bc990612aa4565b60405180910390fd5b826000018281548110611be857611be7612ac4565b5b9060005260206000200154905092915050565b600080836001016000848152602001908152602001600020541415905092915050565b600081600001805490509050919050565b6000611c3b8383611bfb565b611c94578260000182908060018154018082558091505060019003906000526020600020016000909190919091505582600001805490508360010160008481526020019081526020016000208190555060019050611c99565b600090505b92915050565b60008083600101600084815260200190815260200160002054905060008114611dab576000600182611cd191906127f4565b9050600060018660000180549050611ce991906127f4565b90506000866000018281548110611d0357611d02612ac4565b5b9060005260206000200154905080876000018481548110611d2757611d26612ac4565b5b9060005260206000200181905550600183611d429190612828565b8760010160008381526020019081526020016000208190555086600001805480611d6f57611d6e612af3565b5b60019003818190600052602060002001600090559055866001016000878152602001908152602001600020600090556001945050505050611db1565b60009150505b92915050565b600081519050919050565b600082825260208201905092915050565b60005b83811015611df1578082015181840152602081019050611dd6565b60008484015250505050565b6000601f19601f8301169050919050565b6000611e1982611db7565b611e238185611dc2565b9350611e33818560208601611dd3565b611e3c81611dfd565b840191505092915050565b60006020820190508181036000830152611e618184611e0e565b905092915050565b600080fd5b600073ffffffffffffffffffffffffffffffffffffffff82169050919050565b6000611e9982611e6e565b9050919050565b611ea981611e8e565b8114611eb457600080fd5b50565b600081359050611ec681611ea0565b92915050565b6000819050919050565b611edf81611ecc565b8114611eea57600080fd5b50565b600081359050611efc81611ed6565b92915050565b60008060408385031215611f1957611f18611e69565b5b6000611f2785828601611eb7565b9250506020611f3885828601611eed565b9150509250929050565b60008115159050919050565b611f5781611f42565b82525050565b6000602082019050611f726000830184611f4e565b92915050565b611f8181611ecc565b82525050565b6000602082019050611f9c6000830184611f78565b92915050565b600080600060608486031215611fbb57611fba611e69565b5b6000611fc986828701611eb7565b9350506020611fda86828701611eb7565b9250506040611feb86828701611eed565b9150509250925092565b6000819050919050565b61200881611ff5565b811461201357600080fd5b50565b60008135905061202581611fff565b92915050565b60006020828403121561204157612040611e69565b5b600061204f84828501612016565b91505092915050565b61206181611ff5565b82525050565b600060208201905061207c6000830184612058565b92915050565b6000806040838503121561209957612098611e69565b5b60006120a785828601612016565b92505060206120b885828601611eb7565b9150509250929050565b600060ff82169050919050565b6120d8816120c2565b82525050565b60006020820190506120f360008301846120cf565b92915050565b60006020828403121561210f5761210e611e69565b5b600061211d84828501611eed565b91505092915050565b60006020828403121561213c5761213b611e69565b5b600061214a84828501611eb7565b91505092915050565b61215c81611e8e565b82525050565b60006020820190506121776000830184612153565b92915050565b6000806040838503121561219457612193611e69565b5b60006121a285828601612016565b92505060206121b385828601611eed565b9150509250929050565b600080604083850312156121d4576121d3611e69565b5b60006121e285828601611eb7565b92505060206121f385828601611eb7565b9150509250929050565b7f4e487b7100000000000000000000000000000000000000000000000000000000600052602260045260246000fd5b6000600282049050600182168061224457607f821691505b602082108103612257576122566121fd565b5b50919050565b7f416363657373436f6e74726f6c3a2073656e646572206d75737420626520616e60008201527f2061646d696e20746f206772616e740000000000000000000000000000000000602082015250565b60006122b9602f83611dc2565b91506122c48261225d565b604082019050919050565b600060208201905081810360008301526122e8816122ac565b9050919050565b7f416363657373436f6e74726f6c3a2063616e206f6e6c792072656e6f756e636560008201527f20726f6c657320666f722073656c660000000000000000000000000000000000602082015250565b600061234b602f83611dc2565b9150612356826122ef565b604082019050919050565b6000602082019050818103600083015261237a8161233e565b9050919050565b7f4f776e61626c653a2063616c6c6572206973206e6f7420746865206f776e6572600082015250565b60006123b7602083611dc2565b91506123c282612381565b602082019050919050565b600060208201905081810360008301526123e6816123aa565b9050919050565b7f4e6f7420616c6c6f776564000000000000000000000000000000000000000000600082015250565b6000612423600b83611dc2565b915061242e826123ed565b602082019050919050565b6000602082019050818103600083015261245281612416565b9050919050565b7f416363657373436f6e74726f6c3a2073656e646572206d75737420626520616e60008201527f2061646d696e20746f207265766f6b6500000000000000000000000000000000602082015250565b60006124b5603083611dc2565b91506124c082612459565b604082019050919050565b600060208201905081810360008301526124e4816124a8565b9050919050565b7f4f776e61626c653a206e6577206f776e657220697320746865207a65726f206160008201527f6464726573730000000000000000000000000000000000000000000000000000602082015250565b6000612547602683611dc2565b9150612552826124eb565b604082019050919050565b600060208201905081810360008301526125768161253a565b9050919050565b7f45524332303a20617070726f76652066726f6d20746865207a65726f2061646460008201527f7265737300000000000000000000000000000000000000000000000000000000602082015250565b60006125d9602483611dc2565b91506125e48261257d565b604082019050919050565b60006020820190508181036000830152612608816125cc565b9050919050565b7f45524332303a20617070726f766520746f20746865207a65726f20616464726560008201527f7373000000000000000000000000000000000000000000000000000000000000602082015250565b600061266b602283611dc2565b91506126768261260f565b604082019050919050565b6000602082019050818103600083015261269a8161265e565b9050919050565b7f45524332303a207472616e736665722066726f6d20746865207a65726f20616460008201527f6472657373000000000000000000000000000000000000000000000000000000602082015250565b60006126fd602583611dc2565b9150612708826126a1565b604082019050919050565b6000602082019050818103600083015261272c816126f0565b9050919050565b7f45524332303a207472616e7366657220746f20746865207a65726f206164647260008201527f6573730000000000000000000000000000000000000000000000000000000000602082015250565b600061278f602383611dc2565b915061279a82612733565b604082019050919050565b600060208201905081810360008301526127be81612782565b9050919050565b7f4e487b7100000000000000000000000000000000000000000000000000000000600052601160045260246000fd5b60006127ff82611ecc565b915061280a83611ecc565b9250828203905081811115612822576128216127c5565b5b92915050565b600061283382611ecc565b915061283e83611ecc565b9250828201905080821115612856576128556127c5565b5b92915050565b7f536166654d6174683a206164646974696f6e206f766572666c6f770000000000600082015250565b6000612892601b83611dc2565b915061289d8261285c565b602082019050919050565b600060208201905081810360008301526128c181612885565b9050919050565b7f45524332303a206275726e2066726f6d20746865207a65726f2061646472657360008201527f7300000000000000000000000000000000000000000000000000000000000000602082015250565b6000612924602183611dc2565b915061292f826128c8565b604082019050919050565b6000602082019050818103600083015261295381612917565b9050919050565b7f45524332303a206d696e7420746f20746865207a65726f206164647265737300600082015250565b6000612990601f83611dc2565b915061299b8261295a565b602082019050919050565b600060208201905081810360008301526129bf81612983565b9050919050565b7f536166654d6174683a207375627472616374696f6e206f766572666c6f770000600082015250565b60006129fc601e83611dc2565b9150612a07826129c6565b602082019050919050565b60006020820190508181036000830152612a2b816129ef565b9050919050565b7f456e756d657261626c655365743a20696e646578206f7574206f6620626f756e60008201527f6473000000000000000000000000000000000000000000000000000000000000602082015250565b6000612a8e602283611dc2565b9150612a9982612a32565b604082019050919050565b60006020820190508181036000830152612abd81612a81565b9050919050565b7f4e487b7100000000000000000000000000000000000000000000000000000000600052603260045260246000fd5b7f4e487b7100000000000000000000000000000000000000000000000000000000600052603160045260246000fdfe45524332303a206275726e20616d6f756e7420657863656564732062616c616e636545524332303a207472616e7366657220616d6f756e7420657863656564732062616c616e636545524332303a207472616e7366657220616d6f756e74206578636565647320616c6c6f77616e636545524332303a206275726e20616d6f756e74206578636565647320616c6c6f77616e636545524332303a2064656372656173656420616c6c6f77616e63652062656c6f77207a65726fa2646970667358221220cc9f4b4367dbd93d37e18e92d2866f3cb6baf7d4cf7860a734365dda544f8bc864736f6c63430008180033",
  "linkReferences": {},
  "deployedLinkReferences": {}
}