{
  "_format": "hh-sol-artifact-1",
  "contractName": "AUSDGovernance",
  "sourceName": "contracts/AUSDGovernance.sol",
  "abi": [
    {
      "inputs": [
        {
          "internalType": "contract AUSD",
          "name": "_ausd",
          "type": "address"
        }
      ],
      "stateMutability": "nonpayable",
      "type": "constructor"
    },
    {
      "anonymous": false,
      "inputs": [
        {
          "indexed": true,
          "internalType": "address",
          "name": "previousOwner",
          "type": "address"
        },
        {
          "indexed": true,
          "internalType": "address",
          "name": "newOwner",
          "type": "address"
        }
      ],
      "name": "OwnershipTransferred",
      "type": "event"
    },
    {
      "anonymous": false,
      "inputs": [
        {
          "indexed": false,
          "internalType": "uint256",
          "name": "time",
          "type": "uint256"
        },
        {
          "indexed": false,
          "internalType": "uint256",
          "name": "amount",
          "type": "uint256"
        }
      ],
      "name": "RepegAction",
      "type": "event"
    },
    {
      "anonymous": false,
      "inputs": [
        {
          "indexed": true,
          "internalType": "bytes32",
          "name": "role",
          "type": "bytes32"
        },
        {
          "indexed": true,
          "internalType": "bytes32",
          "name": "previousAdminRole",
          "type": "bytes32"
        },
        {
          "indexed": true,
          "internalType": "bytes32",
          "name": "newAdminRole",
          "type": "bytes32"
        }
      ],
      "name": "RoleAdminChanged",
      "type": "event"
    },
    {
      "anonymous": false,
      "inputs": [
        {
          "indexed": true,
          "internalType": "bytes32",
          "name": "role",
          "type": "bytes32"
        },
        {
          "indexed": true,
          "internalType": "address",
          "name": "account",
          "type": "address"
        },
        {
          "indexed": true,
          "internalType": "address",
          "name": "sender",
          "type": "address"
        }
      ],
      "name": "RoleGranted",
      "type": "event"
    },
    {
      "anonymous": false,
      "inputs": [
        {
          "indexed": true,
          "internalType": "bytes32",
          "name": "role",
          "type": "bytes32"
        },
        {
          "indexed": true,
          "internalType": "address",
          "name": "account",
          "type": "address"
        },
        {
          "indexed": true,
          "internalType": "address",
          "name": "sender",
          "type": "address"
        }
      ],
      "name": "RoleRevoked",
      "type": "event"
    },
    {
      "anonymous": false,
      "inputs": [
        {
          "indexed": false,
          "internalType": "uint256",
          "name": "time",
          "type": "uint256"
        },
        {
          "indexed": false,
          "internalType": "uint256",
          "name": "amount",
          "type": "uint256"
        }
      ],
      "name": "Withdraw",
      "type": "event"
    },
    {
      "inputs": [],
      "name": "DEFAULT_ADMIN_ROLE",
      "outputs": [
        {
          "internalType": "bytes32",
          "name": "",
          "type": "bytes32"
        }
      ],
      "stateMutability": "view",
      "type": "function"
    },
    {
      "inputs": [],
      "name": "GOVERN_ROLE",
      "outputs": [
        {
          "internalType": "bytes32",
          "name": "",
          "type": "bytes32"
        }
      ],
      "stateMutability": "view",
      "type": "function"
    },
    {
      "inputs": [
        {
          "internalType": "uint256",
          "name": "",
          "type": "uint256"
        }
      ],
      "name": "_supplyChanges",
      "outputs": [
        {
          "internalType": "string",
          "name": "method",
          "type": "string"
        },
        {
          "internalType": "uint256",
          "name": "amount",
          "type": "uint256"
        },
        {
          "internalType": "uint256",
          "name": "timestamp",
          "type": "uint256"
        },
        {
          "internalType": "uint256",
          "name": "blocknum",
          "type": "uint256"
        }
      ],
      "stateMutability": "view",
      "type": "function"
    },
    {
      "inputs": [
        {
          "internalType": "contract IERC20",
          "name": "colcontract",
          "type": "address"
        }
      ],
      "name": "addColateralToken",
      "outputs": [],
      "stateMutability": "nonpayable",
      "type": "function"
    },
    {
      "inputs": [],
      "name": "ausdsupply",
      "outputs": [
        {
          "internalType": "uint256",
          "name": "",
          "type": "uint256"
        }
      ],
      "stateMutability": "view",
      "type": "function"
    },
    {
      "inputs": [],
      "name": "datafeed",
      "outputs": [
        {
          "internalType": "address",
          "name": "",
          "type": "address"
        }
      ],
      "stateMutability": "view",
      "type": "function"
    },
    {
      "inputs": [],
      "name": "fetchColPrice",
      "outputs": [],
      "stateMutability": "nonpayable",
      "type": "function"
    },
    {
      "inputs": [
        {
          "internalType": "bytes32",
          "name": "role",
          "type": "bytes32"
        }
      ],
      "name": "getRoleAdmin",
      "outputs": [
        {
          "internalType": "bytes32",
          "name": "",
          "type": "bytes32"
        }
      ],
      "stateMutability": "view",
      "type": "function"
    },
    {
      "inputs": [
        {
          "internalType": "bytes32",
          "name": "role",
          "type": "bytes32"
        },
        {
          "internalType": "uint256",
          "name": "index",
          "type": "uint256"
        }
      ],
      "name": "getRoleMember",
      "outputs": [
        {
          "internalType": "address",
          "name": "",
          "type": "address"
        }
      ],
      "stateMutability": "view",
      "type": "function"
    },
    {
      "inputs": [
        {
          "internalType": "bytes32",
          "name": "role",
          "type": "bytes32"
        }
      ],
      "name": "getRoleMemberCount",
      "outputs": [
        {
          "internalType": "uint256",
          "name": "",
          "type": "uint256"
        }
      ],
      "stateMutability": "view",
      "type": "function"
    },
    {
      "inputs": [
        {
          "internalType": "bytes32",
          "name": "role",
          "type": "bytes32"
        },
        {
          "internalType": "address",
          "name": "account",
          "type": "address"
        }
      ],
      "name": "grantRole",
      "outputs": [],
      "stateMutability": "nonpayable",
      "type": "function"
    },
    {
      "inputs": [
        {
          "internalType": "bytes32",
          "name": "role",
          "type": "bytes32"
        },
        {
          "internalType": "address",
          "name": "account",
          "type": "address"
        }
      ],
      "name": "hasRole",
      "outputs": [
        {
          "internalType": "bool",
          "name": "",
          "type": "bool"
        }
      ],
      "stateMutability": "view",
      "type": "function"
    },
    {
      "inputs": [],
      "name": "owner",
      "outputs": [
        {
          "internalType": "address",
          "name": "",
          "type": "address"
        }
      ],
      "stateMutability": "view",
      "type": "function"
    },
    {
      "inputs": [],
      "name": "renounceOwnership",
      "outputs": [],
      "stateMutability": "nonpayable",
      "type": "function"
    },
    {
      "inputs": [
        {
          "internalType": "bytes32",
          "name": "role",
          "type": "bytes32"
        },
        {
          "internalType": "address",
          "name": "account",
          "type": "address"
        }
      ],
      "name": "renounceRole",
      "outputs": [],
      "stateMutability": "nonpayable",
      "type": "function"
    },
    {
      "inputs": [],
      "name": "reserveCount",
      "outputs": [
        {
          "internalType": "uint256",
          "name": "",
          "type": "uint256"
        }
      ],
      "stateMutability": "view",
      "type": "function"
    },
    {
      "inputs": [
        {
          "internalType": "bytes32",
          "name": "role",
          "type": "bytes32"
        },
        {
          "internalType": "address",
          "name": "account",
          "type": "address"
        }
      ],
      "name": "revokeRole",
      "outputs": [],
      "stateMutability": "nonpayable",
      "type": "function"
    },
    {
      "inputs": [
        {
          "internalType": "uint256",
          "name": "",
          "type": "uint256"
        }
      ],
      "name": "rsvList",
      "outputs": [
        {
          "internalType": "contract IERC20",
          "name": "colToken",
          "type": "address"
        }
      ],
      "stateMutability": "view",
      "type": "function"
    },
    {
      "inputs": [
        {
          "internalType": "uint256",
          "name": "totalSupply",
          "type": "uint256"
        }
      ],
      "name": "setAUSDSupply",
      "outputs": [],
      "stateMutability": "nonpayable",
      "type": "function"
    },
    {
      "inputs": [
        {
          "internalType": "address",
          "name": "contractaddress",
          "type": "address"
        }
      ],
      "name": "setDataFeedAddress",
      "outputs": [],
      "stateMutability": "nonpayable",
      "type": "function"
    },
    {
      "inputs": [
        {
          "internalType": "address",
          "name": "reserve",
          "type": "address"
        }
      ],
      "name": "setReserveContract",
      "outputs": [],
      "stateMutability": "nonpayable",
      "type": "function"
    },
    {
      "inputs": [],
      "name": "stableColatAmount",
      "outputs": [
        {
          "internalType": "uint256",
          "name": "",
          "type": "uint256"
        }
      ],
      "stateMutability": "view",
      "type": "function"
    },
    {
      "inputs": [],
      "name": "stableColatPrice",
      "outputs": [
        {
          "internalType": "uint256",
          "name": "",
          "type": "uint256"
        }
      ],
      "stateMutability": "view",
      "type": "function"
    },
    {
      "inputs": [],
      "name": "supplyChangeCount",
      "outputs": [
        {
          "internalType": "uint256",
          "name": "",
          "type": "uint256"
        }
      ],
      "stateMutability": "view",
      "type": "function"
    },
    {
      "inputs": [
        {
          "internalType": "address",
          "name": "newOwner",
          "type": "address"
        }
      ],
      "name": "transferOwnership",
      "outputs": [],
      "stateMutability": "nonpayable",
      "type": "function"
    },
    {
      "inputs": [],
      "name": "unstableColPrice",
      "outputs": [
        {
          "internalType": "uint256",
          "name": "",
          "type": "uint256"
        }
      ],
      "stateMutability": "view",
      "type": "function"
    },
    {
      "inputs": [],
      "name": "unstableColatAmount",
      "outputs": [
        {
          "internalType": "uint256",
          "name": "",
          "type": "uint256"
        }
      ],
      "stateMutability": "view",
      "type": "function"
    },
    {
      "inputs": [],
      "name": "validatePeg",
      "outputs": [],
      "stateMutability": "nonpayable",
      "type": "function"
    },
    {
      "inputs": [
        {
          "internalType": "uint256",
          "name": "_amount",
          "type": "uint256"
        }
      ],
      "name": "withdraw",
      "outputs": [],
      "stateMutability": "nonpayable",
      "type": "function"
    }
  ],
  "bytecode": "0x6080604052670de0b6b3a7640000600b553480156200001d57600080fd5b50604051620033fb380380620033fb8339818101604052810190620000439190620003b7565b600062000055620001a760201b60201c565b9050806000806101000a81548173ffffffffffffffffffffffffffffffffffffffff021916908373ffffffffffffffffffffffffffffffffffffffff1602179055508073ffffffffffffffffffffffffffffffffffffffff16600073ffffffffffffffffffffffffffffffffffffffff167f8be0079c531659141344cd1fd0a4f28419497f9722a3daafe3b4186f6b6457e060405160405180910390a3506001808190555080600560006101000a81548173ffffffffffffffffffffffffffffffffffffffff021916908373ffffffffffffffffffffffffffffffffffffffff1602179055506200015f6000801b62000153620001a760201b60201c565b620001af60201b60201c565b620001a07f899bd46557473cb80307a9dabc297131ced39608330a2d29b2d52b660c03923e62000194620001a760201b60201c565b620001af60201b60201c565b50620003e9565b600033905090565b620001c18282620001c560201b60201c565b5050565b620001ef81600260008581526020019081526020016000206000016200026460201b90919060201c565b15620002605762000205620001a760201b60201c565b73ffffffffffffffffffffffffffffffffffffffff168173ffffffffffffffffffffffffffffffffffffffff16837f2f8788117e7eff1d82e926ec794901d17c78024a50270940304540a733656f0d60405160405180910390a45b5050565b600062000294836000018373ffffffffffffffffffffffffffffffffffffffff1660001b6200029c60201b60201c565b905092915050565b6000620002b083836200031660201b60201c565b6200030b57826000018290806001815401808255809150506001900390600052602060002001600090919091909150558260000180549050836001016000848152602001908152602001600020819055506001905062000310565b600090505b92915050565b600080836001016000848152602001908152602001600020541415905092915050565b600080fd5b600073ffffffffffffffffffffffffffffffffffffffff82169050919050565b60006200036b826200033e565b9050919050565b60006200037f826200035e565b9050919050565b620003918162000372565b81146200039d57600080fd5b50565b600081519050620003b18162000386565b92915050565b600060208284031215620003d057620003cf62000339565b5b6000620003e084828501620003a0565b91505092915050565b61300280620003f96000396000f3fe608060405234801561001057600080fd5b50600436106101cf5760003560e01c8063715018a611610104578063a217fddf116100a2578063d547741f11610071578063d547741f146104e9578063e0e9349b14610505578063eceab5c514610521578063f2fde38b1461053f576101cf565b8063a217fddf1461044a578063a6ef79b414610468578063bd7fe2171461049b578063ca15c873146104b9576101cf565b80638da5cb5b116100de5780638da5cb5b146103ae5780639010d07c146103cc57806391d14854146103fc5780639588e6141461042c576101cf565b8063715018a61461039057806381613f251461039a5780638a6e0169146103a4576101cf565b80632f2ff15d1161017157806338b7f4461161014b57806338b7f44614610308578063527a52c8146103265780635e6a4fb014610342578063669004f914610360576101cf565b80632f2ff15d146102b25780632f41ffd0146102ce57806336568abe146102ec576101cf565b806326ba7898116101ad57806326ba7898146102405780632d906e631461025c5780632dc47153146102785780632e1a7d4d14610296576101cf565b806316317c21146101d457806319cb170c146101f2578063248a9ca314610210575b600080fd5b6101dc61055b565b6040516101e99190611f1a565b60405180910390f35b6101fa610561565b6040516102079190611f1a565b60405180910390f35b61022a60048036038101906102259190611f70565b610567565b6040516102379190611fac565b60405180910390f35b61025a60048036038101906102559190612025565b610587565b005b6102766004803603810190610271919061207e565b61069e565b005b610280610718565b60405161028d91906120ba565b60405180910390f35b6102b060048036038101906102ab919061207e565b61073e565b005b6102cc60048036038101906102c791906120d5565b6108df565b005b6102d6610953565b6040516102e39190611f1a565b60405180910390f35b610306600480360381019061030191906120d5565b610959565b005b6103106109dc565b60405161031d9190611fac565b60405180910390f35b610340600480360381019061033b9190612025565b610a00565b005b61034a610b08565b6040516103579190611f1a565b60405180910390f35b61037a6004803603810190610375919061207e565b610b0e565b6040516103879190612174565b60405180910390f35b610398610b4c565b005b6103a2610c86565b005b6103ac610e0a565b005b6103b6611238565b6040516103c391906120ba565b60405180910390f35b6103e660048036038101906103e1919061218f565b611261565b6040516103f391906120ba565b60405180910390f35b610416600480360381019061041191906120d5565b611293565b60405161042391906121ea565b60405180910390f35b6104346112c5565b6040516104419190611f1a565b60405180910390f35b6104526112cb565b60405161045f9190611fac565b60405180910390f35b610482600480360381019061047d919061207e565b6112d2565b6040516104929493929190612295565b60405180910390f35b6104a361138a565b6040516104b09190611f1a565b60405180910390f35b6104d360048036038101906104ce9190611f70565b611390565b6040516104e09190611f1a565b60405180910390f35b61050360048036038101906104fe91906120d5565b6113b7565b005b61051f600480360381019061051a919061231f565b61142b565b005b610529611561565b6040516105369190611f1a565b60405180910390f35b61055960048036038101906105549190612025565b611567565b005b600f5481565b600b5481565b600060026000838152602001908152602001600020600201549050919050565b6105b87f899bd46557473cb80307a9dabc297131ced39608330a2d29b2d52b660c03923e6105b361170f565b611293565b6105f7576040517f08c379a00000000000000000000000000000000000000000000000000000000081526004016105ee90612398565b60405180910390fd5b80600960006101000a81548173ffffffffffffffffffffffffffffffffffffffff021916908373ffffffffffffffffffffffffffffffffffffffff160217905550600960009054906101000a900473ffffffffffffffffffffffffffffffffffffffff16600660006101000a81548173ffffffffffffffffffffffffffffffffffffffff021916908373ffffffffffffffffffffffffffffffffffffffff16021790555050565b6106cf7f899bd46557473cb80307a9dabc297131ced39608330a2d29b2d52b660c03923e6106ca61170f565b611293565b61070e576040517f08c379a000000000000000000000000000000000000000000000000000000000815260040161070590612398565b60405180910390fd5b8060088190555050565b600960009054906101000a900473ffffffffffffffffffffffffffffffffffffffff1681565b600260015403610783576040517f08c379a000000000000000000000000000000000000000000000000000000000815260040161077a90612404565b60405180910390fd5b60026001819055506107bc7f899bd46557473cb80307a9dabc297131ced39608330a2d29b2d52b660c03923e6107b761170f565b611293565b6107fb576040517f08c379a00000000000000000000000000000000000000000000000000000000081526004016107f290612398565b60405180910390fd5b600560009054906101000a900473ffffffffffffffffffffffffffffffffffffffff1673ffffffffffffffffffffffffffffffffffffffff1663a9059cbb33836040518363ffffffff1660e01b8152600401610858929190612424565b6020604051808303816000875af1158015610877573d6000803e3d6000fd5b505050506040513d601f19601f8201168201806040525081019061089b9190612479565b507f56ca301a9219608c91e7bcee90e083c19671d2cdcc96752c7af291cee5f9c8c842826040516108cd9291906124a6565b60405180910390a16001808190555050565b610906600260008481526020019081526020016000206002015461090161170f565b611293565b610945576040517f08c379a000000000000000000000000000000000000000000000000000000000815260040161093c90612541565b60405180910390fd5b61094f8282611717565b5050565b600a5481565b61096161170f565b73ffffffffffffffffffffffffffffffffffffffff168173ffffffffffffffffffffffffffffffffffffffff16146109ce576040517f08c379a00000000000000000000000000000000000000000000000000000000081526004016109c5906125d3565b60405180910390fd5b6109d882826117ab565b5050565b7f899bd46557473cb80307a9dabc297131ced39608330a2d29b2d52b660c03923e81565b600260015403610a45576040517f08c379a0000000000000000000000000000000000000000000000000000000008152600401610a3c90612404565b60405180910390fd5b6002600181905550610a7e7f899bd46557473cb80307a9dabc297131ced39608330a2d29b2d52b660c03923e610a7961170f565b611293565b610abd576040517f08c379a0000000000000000000000000000000000000000000000000000000008152600401610ab490612398565b60405180910390fd5b80600760006101000a81548173ffffffffffffffffffffffffffffffffffffffff021916908373ffffffffffffffffffffffffffffffffffffffff1602179055506001808190555050565b600e5481565b60036020528060005260406000206000915090508060000160009054906101000a900473ffffffffffffffffffffffffffffffffffffffff16905081565b610b5461170f565b73ffffffffffffffffffffffffffffffffffffffff16610b72611238565b73ffffffffffffffffffffffffffffffffffffffff1614610bc8576040517f08c379a0000000000000000000000000000000000000000000000000000000008152600401610bbf9061263f565b60405180910390fd5b600073ffffffffffffffffffffffffffffffffffffffff1660008054906101000a900473ffffffffffffffffffffffffffffffffffffffff1673ffffffffffffffffffffffffffffffffffffffff167f8be0079c531659141344cd1fd0a4f28419497f9722a3daafe3b4186f6b6457e060405160405180910390a360008060006101000a81548173ffffffffffffffffffffffffffffffffffffffff021916908373ffffffffffffffffffffffffffffffffffffffff160217905550565b600260015403610ccb576040517f08c379a0000000000000000000000000000000000000000000000000000000008152600401610cc290612404565b60405180910390fd5b6002600181905550610d047f899bd46557473cb80307a9dabc297131ced39608330a2d29b2d52b660c03923e610cff61170f565b611293565b610d43576040517f08c379a0000000000000000000000000000000000000000000000000000000008152600401610d3a90612398565b60405180910390fd5b6000600660009054906101000a900473ffffffffffffffffffffffffffffffffffffffff1673ffffffffffffffffffffffffffffffffffffffff1663feaf968c6040518163ffffffff1660e01b815260040160a060405180830381865afa158015610db2573d6000803e3d6000fd5b505050506040513d601f19601f82011682018060405250810190610dd691906126b6565b5050509150506000610df66402540be4008361183f90919063ffffffff16565b905080600e81905550505060018081905550565b600260015403610e4f576040517f08c379a0000000000000000000000000000000000000000000000000000000008152600401610e4690612404565b60405180910390fd5b6002600181905550610e887f899bd46557473cb80307a9dabc297131ced39608330a2d29b2d52b660c03923e610e8361170f565b611293565b610ec7576040517f08c379a0000000000000000000000000000000000000000000000000000000008152600401610ebe90612398565b60405180910390fd5b6000610ed16118b9565b905060019050801561122e576000610f24610ef9600e54600d5461183f90919063ffffffff16565b610f16670de0b6b3a7640000600c5461183f90919063ffffffff16565b611b0390919063ffffffff16565b90506000610f43670de0b6b3a764000083611b6190919063ffffffff16565b905060085481101561106f576000610f6682600854611bb990919063ffffffff16565b9050600560009054906101000a900473ffffffffffffffffffffffffffffffffffffffff1673ffffffffffffffffffffffffffffffffffffffff166342966c68826040518263ffffffff1660e01b8152600401610fc39190611f1a565b600060405180830381600087803b158015610fdd57600080fd5b505af1158015610ff1573d6000803e3d6000fd5b505050506040518060400160405280600481526020017f4275726e0000000000000000000000000000000000000000000000000000000081525060046000600a548152602001908152602001600020600001908161104f9190612962565b508060046000600a54815260200190815260200160002060010181905550505b60085481111561119957600061109060085483611bb990919063ffffffff16565b9050600560009054906101000a900473ffffffffffffffffffffffffffffffffffffffff1673ffffffffffffffffffffffffffffffffffffffff1663a0712d68826040518263ffffffff1660e01b81526004016110ed9190611f1a565b600060405180830381600087803b15801561110757600080fd5b505af115801561111b573d6000803e3d6000fd5b505050506040518060400160405280600481526020017f4d696e740000000000000000000000000000000000000000000000000000000081525060046000600a54815260200190815260200160002060000190816111799190612962565b508060046000600a54815260200190815260200160002060010181905550505b806008819055504360046000600a548152602001908152602001600020600301819055504260046000600a54815260200190815260200160002060020181905550600a60008154809291906111ed90612a63565b91905055507f2a6a493f767ec856dcac2f52ecc7e244b432c2d615092ef532c22a94568ed99542826040516112239291906124a6565b60405180910390a150505b5060018081905550565b60008060009054906101000a900473ffffffffffffffffffffffffffffffffffffffff16905090565b600061128b8260026000868152602001908152602001600020600001611c1290919063ffffffff16565b905092915050565b60006112bd8260026000868152602001908152602001600020600001611c2c90919063ffffffff16565b905092915050565b600c5481565b6000801b81565b60046020528060005260406000206000915090508060000180546112f59061278f565b80601f01602080910402602001604051908101604052809291908181526020018280546113219061278f565b801561136e5780601f106113435761010080835404028352916020019161136e565b820191906000526020600020905b81548152906001019060200180831161135157829003601f168201915b5050505050908060010154908060020154908060030154905084565b60085481565b60006113b060026000848152602001908152602001600020600001611c5c565b9050919050565b6113de60026000848152602001908152602001600020600201546113d961170f565b611293565b61141d576040517f08c379a000000000000000000000000000000000000000000000000000000000815260040161141490612b1d565b60405180910390fd5b61142782826117ab565b5050565b600260015403611470576040517f08c379a000000000000000000000000000000000000000000000000000000000815260040161146790612404565b60405180910390fd5b60026001819055506114a97f899bd46557473cb80307a9dabc297131ced39608330a2d29b2d52b660c03923e6114a461170f565b611293565b6114e8576040517f08c379a00000000000000000000000000000000000000000000000000000000081526004016114df90612398565b60405180910390fd5b8060036000600f54815260200190815260200160002060000160006101000a81548173ffffffffffffffffffffffffffffffffffffffff021916908373ffffffffffffffffffffffffffffffffffffffff160217905550600f600081548092919061155290612a63565b91905055506001808190555050565b600d5481565b61156f61170f565b73ffffffffffffffffffffffffffffffffffffffff1661158d611238565b73ffffffffffffffffffffffffffffffffffffffff16146115e3576040517f08c379a00000000000000000000000000000000000000000000000000000000081526004016115da9061263f565b60405180910390fd5b600073ffffffffffffffffffffffffffffffffffffffff168173ffffffffffffffffffffffffffffffffffffffff1603611652576040517f08c379a000000000000000000000000000000000000000000000000000000000815260040161164990612baf565b60405180910390fd5b8073ffffffffffffffffffffffffffffffffffffffff1660008054906101000a900473ffffffffffffffffffffffffffffffffffffffff1673ffffffffffffffffffffffffffffffffffffffff167f8be0079c531659141344cd1fd0a4f28419497f9722a3daafe3b4186f6b6457e060405160405180910390a3806000806101000a81548173ffffffffffffffffffffffffffffffffffffffff021916908373ffffffffffffffffffffffffffffffffffffffff16021790555050565b600033905090565b61173f8160026000858152602001908152602001600020600001611c7190919063ffffffff16565b156117a75761174c61170f565b73ffffffffffffffffffffffffffffffffffffffff168173ffffffffffffffffffffffffffffffffffffffff16837f2f8788117e7eff1d82e926ec794901d17c78024a50270940304540a733656f0d60405160405180910390a45b5050565b6117d38160026000858152602001908152602001600020600001611ca190919063ffffffff16565b1561183b576117e061170f565b73ffffffffffffffffffffffffffffffffffffffff168173ffffffffffffffffffffffffffffffffffffffff16837ff6391f5c32d9c69d2a47ea670b442974b53935d1edc7fd64eb21e047a839171b60405160405180910390a45b5050565b600080830361185157600090506118b3565b6000828461185f9190612bcf565b905082848261186e9190612c40565b146118ae576040517f08c379a00000000000000000000000000000000000000000000000000000000081526004016118a590612ce3565b60405180910390fd5b809150505b92915050565b60006118ec7f899bd46557473cb80307a9dabc297131ced39608330a2d29b2d52b660c03923e6118e761170f565b611293565b61192b576040517f08c379a000000000000000000000000000000000000000000000000000000000815260040161192290612398565b60405180910390fd5b60006003600080815260200190815260200160002060000160009054906101000a900473ffffffffffffffffffffffffffffffffffffffff1673ffffffffffffffffffffffffffffffffffffffff166370a08231600760009054906101000a900473ffffffffffffffffffffffffffffffffffffffff166040518263ffffffff1660e01b81526004016119be91906120ba565b602060405180830381865afa1580156119db573d6000803e3d6000fd5b505050506040513d601f19601f820116820180604052508101906119ff9190612d03565b90506000600360006001815260200190815260200160002060000160009054906101000a900473ffffffffffffffffffffffffffffffffffffffff1673ffffffffffffffffffffffffffffffffffffffff166370a08231600760009054906101000a900473ffffffffffffffffffffffffffffffffffffffff166040518263ffffffff1660e01b8152600401611a9591906120ba565b602060405180830381865afa158015611ab2573d6000803e3d6000fd5b505050506040513d601f19601f82011682018060405250810190611ad69190612d03565b9050600c548214611ae95781600c819055505b600c548114611afa5780600d819055505b60019250505090565b6000808284611b129190612d30565b905083811015611b57576040517f08c379a0000000000000000000000000000000000000000000000000000000008152600401611b4e90612db0565b60405180910390fd5b8091505092915050565b6000808211611ba5576040517f08c379a0000000000000000000000000000000000000000000000000000000008152600401611b9c90612e1c565b60405180910390fd5b8183611bb19190612c40565b905092915050565b600082821115611bfe576040517f08c379a0000000000000000000000000000000000000000000000000000000008152600401611bf590612e88565b60405180910390fd5b8183611c0a9190612ea8565b905092915050565b6000611c218360000183611cd1565b60001c905092915050565b6000611c54836000018373ffffffffffffffffffffffffffffffffffffffff1660001b611d45565b905092915050565b6000611c6a82600001611d68565b9050919050565b6000611c99836000018373ffffffffffffffffffffffffffffffffffffffff1660001b611d79565b905092915050565b6000611cc9836000018373ffffffffffffffffffffffffffffffffffffffff1660001b611de9565b905092915050565b600081836000018054905011611d1c576040517f08c379a0000000000000000000000000000000000000000000000000000000008152600401611d1390612f4e565b60405180910390fd5b826000018281548110611d3257611d31612f6e565b5b9060005260206000200154905092915050565b600080836001016000848152602001908152602001600020541415905092915050565b600081600001805490509050919050565b6000611d858383611d45565b611dde578260000182908060018154018082558091505060019003906000526020600020016000909190919091505582600001805490508360010160008481526020019081526020016000208190555060019050611de3565b600090505b92915050565b60008083600101600084815260200190815260200160002054905060008114611ef5576000600182611e1b9190612ea8565b9050600060018660000180549050611e339190612ea8565b90506000866000018281548110611e4d57611e4c612f6e565b5b9060005260206000200154905080876000018481548110611e7157611e70612f6e565b5b9060005260206000200181905550600183611e8c9190612d30565b8760010160008381526020019081526020016000208190555086600001805480611eb957611eb8612f9d565b5b60019003818190600052602060002001600090559055866001016000878152602001908152602001600020600090556001945050505050611efb565b60009150505b92915050565b6000819050919050565b611f1481611f01565b82525050565b6000602082019050611f2f6000830184611f0b565b92915050565b600080fd5b6000819050919050565b611f4d81611f3a565b8114611f5857600080fd5b50565b600081359050611f6a81611f44565b92915050565b600060208284031215611f8657611f85611f35565b5b6000611f9484828501611f5b565b91505092915050565b611fa681611f3a565b82525050565b6000602082019050611fc16000830184611f9d565b92915050565b600073ffffffffffffffffffffffffffffffffffffffff82169050919050565b6000611ff282611fc7565b9050919050565b61200281611fe7565b811461200d57600080fd5b50565b60008135905061201f81611ff9565b92915050565b60006020828403121561203b5761203a611f35565b5b600061204984828501612010565b91505092915050565b61205b81611f01565b811461206657600080fd5b50565b60008135905061207881612052565b92915050565b60006020828403121561209457612093611f35565b5b60006120a284828501612069565b91505092915050565b6120b481611fe7565b82525050565b60006020820190506120cf60008301846120ab565b92915050565b600080604083850312156120ec576120eb611f35565b5b60006120fa85828601611f5b565b925050602061210b85828601612010565b9150509250929050565b6000819050919050565b600061213a61213561213084611fc7565b612115565b611fc7565b9050919050565b600061214c8261211f565b9050919050565b600061215e82612141565b9050919050565b61216e81612153565b82525050565b60006020820190506121896000830184612165565b92915050565b600080604083850312156121a6576121a5611f35565b5b60006121b485828601611f5b565b92505060206121c585828601612069565b9150509250929050565b60008115159050919050565b6121e4816121cf565b82525050565b60006020820190506121ff60008301846121db565b92915050565b600081519050919050565b600082825260208201905092915050565b60005b8381101561223f578082015181840152602081019050612224565b60008484015250505050565b6000601f19601f8301169050919050565b600061226782612205565b6122718185612210565b9350612281818560208601612221565b61228a8161224b565b840191505092915050565b600060808201905081810360008301526122af818761225c565b90506122be6020830186611f0b565b6122cb6040830185611f0b565b6122d86060830184611f0b565b95945050505050565b60006122ec82611fe7565b9050919050565b6122fc816122e1565b811461230757600080fd5b50565b600081359050612319816122f3565b92915050565b60006020828403121561233557612334611f35565b5b60006123438482850161230a565b91505092915050565b7f4e6f7420616c6c6f776564000000000000000000000000000000000000000000600082015250565b6000612382600b83612210565b915061238d8261234c565b602082019050919050565b600060208201905081810360008301526123b181612375565b9050919050565b7f5265656e7472616e637947756172643a207265656e7472616e742063616c6c00600082015250565b60006123ee601f83612210565b91506123f9826123b8565b602082019050919050565b6000602082019050818103600083015261241d816123e1565b9050919050565b600060408201905061243960008301856120ab565b6124466020830184611f0b565b9392505050565b612456816121cf565b811461246157600080fd5b50565b6000815190506124738161244d565b92915050565b60006020828403121561248f5761248e611f35565b5b600061249d84828501612464565b91505092915050565b60006040820190506124bb6000830185611f0b565b6124c86020830184611f0b565b9392505050565b7f416363657373436f6e74726f6c3a2073656e646572206d75737420626520616e60008201527f2061646d696e20746f206772616e740000000000000000000000000000000000602082015250565b600061252b602f83612210565b9150612536826124cf565b604082019050919050565b6000602082019050818103600083015261255a8161251e565b9050919050565b7f416363657373436f6e74726f6c3a2063616e206f6e6c792072656e6f756e636560008201527f20726f6c657320666f722073656c660000000000000000000000000000000000602082015250565b60006125bd602f83612210565b91506125c882612561565b604082019050919050565b600060208201905081810360008301526125ec816125b0565b9050919050565b7f4f776e61626c653a2063616c6c6572206973206e6f7420746865206f776e6572600082015250565b6000612629602083612210565b9150612634826125f3565b602082019050919050565b600060208201905081810360008301526126588161261c565b9050919050565b600069ffffffffffffffffffff82169050919050565b61267e8161265f565b811461268957600080fd5b50565b60008151905061269b81612675565b92915050565b6000815190506126b081612052565b92915050565b600080600080600060a086880312156126d2576126d1611f35565b5b60006126e08882890161268c565b95505060206126f1888289016126a1565b9450506040612702888289016126a1565b9350506060612713888289016126a1565b92505060806127248882890161268c565b9150509295509295909350565b7f4e487b7100000000000000000000000000000000000000000000000000000000600052604160045260246000fd5b7f4e487b7100000000000000000000000000000000000000000000000000000000600052602260045260246000fd5b600060028204905060018216806127a757607f821691505b6020821081036127ba576127b9612760565b5b50919050565b60008190508160005260206000209050919050565b60006020601f8301049050919050565b600082821b905092915050565b6000600883026128227fffffffffffffffffffffffffffffffffffffffffffffffffffffffffffffffff826127e5565b61282c86836127e5565b95508019841693508086168417925050509392505050565b600061285f61285a61285584611f01565b612115565b611f01565b9050919050565b6000819050919050565b61287983612844565b61288d61288582612866565b8484546127f2565b825550505050565b600090565b6128a2612895565b6128ad818484612870565b505050565b5b818110156128d1576128c660008261289a565b6001810190506128b3565b5050565b601f821115612916576128e7816127c0565b6128f0846127d5565b810160208510156128ff578190505b61291361290b856127d5565b8301826128b2565b50505b505050565b600082821c905092915050565b60006129396000198460080261291b565b1980831691505092915050565b60006129528383612928565b9150826002028217905092915050565b61296b82612205565b67ffffffffffffffff81111561298457612983612731565b5b61298e825461278f565b6129998282856128d5565b600060209050601f8311600181146129cc57600084156129ba578287015190505b6129c48582612946565b865550612a2c565b601f1984166129da866127c0565b60005b82811015612a02578489015182556001820191506020850194506020810190506129dd565b86831015612a1f5784890151612a1b601f891682612928565b8355505b6001600288020188555050505b505050505050565b7f4e487b7100000000000000000000000000000000000000000000000000000000600052601160045260246000fd5b6000612a6e82611f01565b91507fffffffffffffffffffffffffffffffffffffffffffffffffffffffffffffffff8203612aa057612a9f612a34565b5b600182019050919050565b7f416363657373436f6e74726f6c3a2073656e646572206d75737420626520616e60008201527f2061646d696e20746f207265766f6b6500000000000000000000000000000000602082015250565b6000612b07603083612210565b9150612b1282612aab565b604082019050919050565b60006020820190508181036000830152612b3681612afa565b9050919050565b7f4f776e61626c653a206e6577206f776e657220697320746865207a65726f206160008201527f6464726573730000000000000000000000000000000000000000000000000000602082015250565b6000612b99602683612210565b9150612ba482612b3d565b604082019050919050565b60006020820190508181036000830152612bc881612b8c565b9050919050565b6000612bda82611f01565b9150612be583611f01565b9250828202612bf381611f01565b91508282048414831517612c0a57612c09612a34565b5b5092915050565b7f4e487b7100000000000000000000000000000000000000000000000000000000600052601260045260246000fd5b6000612c4b82611f01565b9150612c5683611f01565b925082612c6657612c65612c11565b5b828204905092915050565b7f536166654d6174683a206d756c7469706c69636174696f6e206f766572666c6f60008201527f7700000000000000000000000000000000000000000000000000000000000000602082015250565b6000612ccd602183612210565b9150612cd882612c71565b604082019050919050565b60006020820190508181036000830152612cfc81612cc0565b9050919050565b600060208284031215612d1957612d18611f35565b5b6000612d27848285016126a1565b91505092915050565b6000612d3b82611f01565b9150612d4683611f01565b9250828201905080821115612d5e57612d5d612a34565b5b92915050565b7f536166654d6174683a206164646974696f6e206f766572666c6f770000000000600082015250565b6000612d9a601b83612210565b9150612da582612d64565b602082019050919050565b60006020820190508181036000830152612dc981612d8d565b9050919050565b7f536166654d6174683a206469766973696f6e206279207a65726f000000000000600082015250565b6000612e06601a83612210565b9150612e1182612dd0565b602082019050919050565b60006020820190508181036000830152612e3581612df9565b9050919050565b7f536166654d6174683a207375627472616374696f6e206f766572666c6f770000600082015250565b6000612e72601e83612210565b9150612e7d82612e3c565b602082019050919050565b60006020820190508181036000830152612ea181612e65565b9050919050565b6000612eb382611f01565b9150612ebe83611f01565b9250828203905081811115612ed657612ed5612a34565b5b92915050565b7f456e756d657261626c655365743a20696e646578206f7574206f6620626f756e60008201527f6473000000000000000000000000000000000000000000000000000000000000602082015250565b6000612f38602283612210565b9150612f4382612edc565b604082019050919050565b60006020820190508181036000830152612f6781612f2b565b9050919050565b7f4e487b7100000000000000000000000000000000000000000000000000000000600052603260045260246000fd5b7f4e487b7100000000000000000000000000000000000000000000000000000000600052603160045260246000fdfea2646970667358221220405e7bdecad9ffa002407a060a6b62670e3632a4618312d59b75ead84a8ca3ed64736f6c63430008140033",
  "linkReferences": {},
  "deployedLinkReferences": {}
}