{
  "_format": "hh-sol-artifact-1",
  "contractName": "PriceOracle",
  "sourceName": "contracts/PriceOracle.sol",
  "abi": [
    {
      "inputs": [],
      "name": "colPriceToWei",
      "outputs": [],
      "stateMutability": "nonpayable",
      "type": "function"
    },
    {
      "inputs": [],
      "name": "datafeed",
      "outputs": [
        {
          "internalType": "address",
          "name": "",
          "type": "address"
        }
      ],
      "stateMutability": "view",
      "type": "function"
    },
    {
      "inputs": [],
      "name": "rawColPrice",
      "outputs": [
        {
          "internalType": "uint256",
          "name": "",
          "type": "uint256"
        }
      ],
      "stateMutability": "view",
      "type": "function"
    },
    {
      "inputs": [
        {
          "internalType": "address",
          "name": "contractaddress",
          "type": "address"
        }
      ],
      "name": "setDataFeedAddress",
      "outputs": [],
      "stateMutability": "nonpayable",
      "type": "function"
    },
    {
      "inputs": [],
      "name": "unstableColPrice",
      "outputs": [
        {
          "internalType": "uint256",
          "name": "",
          "type": "uint256"
        }
      ],
      "stateMutability": "view",
      "type": "function"
    }
  ],
  "bytecode": "0x608060405234801561001057600080fd5b50610701806100206000396000f3fe608060405234801561001057600080fd5b50600436106100575760003560e01c806326ba78981461005c5780632dc47153146100785780635e6a4fb01461009657806397b85420146100b4578063f630ba51146100be575b600080fd5b610076600480360381019061007191906103e3565b6100dc565b005b610080610182565b60405161008d919061041f565b60405180910390f35b61009e6101a8565b6040516100ab9190610453565b60405180910390f35b6100bc6101ae565b005b6100c6610267565b6040516100d39190610453565b60405180910390f35b80600260006101000a81548173ffffffffffffffffffffffffffffffffffffffff021916908373ffffffffffffffffffffffffffffffffffffffff160217905550600260009054906101000a900473ffffffffffffffffffffffffffffffffffffffff166000806101000a81548173ffffffffffffffffffffffffffffffffffffffff021916908373ffffffffffffffffffffffffffffffffffffffff16021790555050565b600260009054906101000a900473ffffffffffffffffffffffffffffffffffffffff1681565b60015481565b60008060009054906101000a900473ffffffffffffffffffffffffffffffffffffffff1673ffffffffffffffffffffffffffffffffffffffff1663feaf968c6040518163ffffffff1660e01b815260040160a060405180830381865afa15801561021c573d6000803e3d6000fd5b505050506040513d601f19601f8201168201806040525081019061024091906104dc565b50505091505061025e6402540be4008261030690919063ffffffff16565b60018190555050565b60008060008054906101000a900473ffffffffffffffffffffffffffffffffffffffff1673ffffffffffffffffffffffffffffffffffffffff1663feaf968c6040518163ffffffff1660e01b815260040160a060405180830381865afa1580156102d5573d6000803e3d6000fd5b505050506040513d601f19601f820116820180604052508101906102f991906104dc565b5050509150508091505090565b6000808303610318576000905061037a565b600082846103269190610586565b905082848261033591906105f7565b14610375576040517f08c379a000000000000000000000000000000000000000000000000000000000815260040161036c906106ab565b60405180910390fd5b809150505b92915050565b600080fd5b600073ffffffffffffffffffffffffffffffffffffffff82169050919050565b60006103b082610385565b9050919050565b6103c0816103a5565b81146103cb57600080fd5b50565b6000813590506103dd816103b7565b92915050565b6000602082840312156103f9576103f8610380565b5b6000610407848285016103ce565b91505092915050565b610419816103a5565b82525050565b60006020820190506104346000830184610410565b92915050565b6000819050919050565b61044d8161043a565b82525050565b60006020820190506104686000830184610444565b92915050565b600069ffffffffffffffffffff82169050919050565b61048d8161046e565b811461049857600080fd5b50565b6000815190506104aa81610484565b92915050565b6104b98161043a565b81146104c457600080fd5b50565b6000815190506104d6816104b0565b92915050565b600080600080600060a086880312156104f8576104f7610380565b5b60006105068882890161049b565b9550506020610517888289016104c7565b9450506040610528888289016104c7565b9350506060610539888289016104c7565b925050608061054a8882890161049b565b9150509295509295909350565b7f4e487b7100000000000000000000000000000000000000000000000000000000600052601160045260246000fd5b60006105918261043a565b915061059c8361043a565b92508282026105aa8161043a565b915082820484148315176105c1576105c0610557565b5b5092915050565b7f4e487b7100000000000000000000000000000000000000000000000000000000600052601260045260246000fd5b60006106028261043a565b915061060d8361043a565b92508261061d5761061c6105c8565b5b828204905092915050565b600082825260208201905092915050565b7f536166654d6174683a206d756c7469706c69636174696f6e206f766572666c6f60008201527f7700000000000000000000000000000000000000000000000000000000000000602082015250565b6000610695602183610628565b91506106a082610639565b604082019050919050565b600060208201905081810360008301526106c481610688565b905091905056fea26469706673582212202ad4bceebb268a0432bcaac9a92c25fd75acc8e6a51a680bafd2eed3e77a362964736f6c63430008180033",
  "linkReferences": {},
  "deployedLinkReferences": {}
}